{
  "contracts/Hero.sol": {
    "Hero": {
      "abi": [
        {
          "inputs": [
            {
              "internalType": "enum Hero.Class",
              "name": "class",
              "type": "uint8"
            }
          ],
          "name": "createHero",
          "outputs": [],
          "stateMutability": "payable",
          "type": "function"
        },
        {
          "inputs": [],
          "name": "generateRandom",
          "outputs": [
            {
              "internalType": "uint256",
              "name": "",
              "type": "uint256"
            }
          ],
          "stateMutability": "view",
          "type": "function"
        },
        {
          "inputs": [
            {
              "internalType": "uint256",
              "name": "hero",
              "type": "uint256"
            }
          ],
          "name": "getClass",
          "outputs": [
            {
              "internalType": "enum Hero.Class",
              "name": "",
              "type": "uint8"
            }
          ],
          "stateMutability": "pure",
          "type": "function"
        },
        {
          "inputs": [
            {
              "internalType": "uint256",
              "name": "hero",
              "type": "uint256"
            }
          ],
          "name": "getDexterity",
          "outputs": [
            {
              "internalType": "uint256",
              "name": "",
              "type": "uint256"
            }
          ],
          "stateMutability": "pure",
          "type": "function"
        },
        {
          "inputs": [
            {
              "internalType": "uint256",
              "name": "hero",
              "type": "uint256"
            }
          ],
          "name": "getHealth",
          "outputs": [
            {
              "internalType": "uint256",
              "name": "",
              "type": "uint256"
            }
          ],
          "stateMutability": "pure",
          "type": "function"
        },
        {
          "inputs": [],
          "name": "getHeroes",
          "outputs": [
            {
              "internalType": "uint256[]",
              "name": "",
              "type": "uint256[]"
            }
          ],
          "stateMutability": "view",
          "type": "function"
        },
        {
          "inputs": [
            {
              "internalType": "uint256",
              "name": "hero",
              "type": "uint256"
            }
          ],
          "name": "getIntelligence",
          "outputs": [
            {
              "internalType": "uint256",
              "name": "",
              "type": "uint256"
            }
          ],
          "stateMutability": "pure",
          "type": "function"
        },
        {
          "inputs": [
            {
              "internalType": "uint256",
              "name": "hero",
              "type": "uint256"
            }
          ],
          "name": "getMagic",
          "outputs": [
            {
              "internalType": "uint256",
              "name": "",
              "type": "uint256"
            }
          ],
          "stateMutability": "pure",
          "type": "function"
        },
        {
          "inputs": [
            {
              "internalType": "uint256",
              "name": "hero",
              "type": "uint256"
            }
          ],
          "name": "getStrength",
          "outputs": [
            {
              "internalType": "uint256",
              "name": "",
              "type": "uint256"
            }
          ],
          "stateMutability": "pure",
          "type": "function"
        }
      ],
      "evm": {
        "bytecode": {
          "linkReferences": {},
          "object": "608060405234801561001057600080fd5b50610aef806100206000396000f3fe6080604052600436106100865760003560e01c80635e7e236d116100595780635e7e236d1461016d5780639a8d288214610189578063baa5b27f146101b4578063e15f2255146101f1578063e53fbda61461022e57610086565b806302e4af011461008b5780633fc70f2c146100b6578063512d62df146100f35780635bc0a62314610130575b600080fd5b34801561009757600080fd5b506100a061026b565b6040516100ad9190610645565b60405180910390f35b3480156100c257600080fd5b506100dd60048036038101906100d89190610691565b61029e565b6040516100ea9190610645565b60405180910390f35b3480156100ff57600080fd5b5061011a60048036038101906101159190610691565b6102af565b6040516101279190610735565b60405180910390f35b34801561013c57600080fd5b5061015760048036038101906101529190610691565b6102cf565b6040516101649190610645565b60405180910390f35b61018760048036038101906101829190610775565b6102e0565b005b34801561019557600080fd5b5061019e610565565b6040516101ab9190610860565b60405180910390f35b3480156101c057600080fd5b506101db60048036038101906101d69190610691565b6105f9565b6040516101e89190610645565b60405180910390f35b3480156101fd57600080fd5b5061021860048036038101906102139190610691565b61060a565b6040516102259190610645565b60405180910390f35b34801561023a57600080fd5b5061025560048036038101906102509190610691565b61061b565b6040516102629190610645565b60405180910390f35b600044426040516020016102809291906108a3565b6040516020818303038152906040528051906020012060001c905090565b6000601f600783901c169050919050565b6000602082901c60028111156102c8576102c76106be565b5b9050919050565b6000601f601683901c169050919050565b66b1a2bc2ec5000034101561032a576040517f08c379a00000000000000000000000000000000000000000000000000000000081526004016103219061092c565b60405180910390fd5b6000600567ffffffffffffffff8111156103475761034661094c565b5b6040519080825280602002602001820160405280156103755781602001602082028036833780820191505090505b50905060028160008151811061038e5761038d61097b565b5b6020026020010181815250506007816001815181106103b0576103af61097b565b5b602002602001018181525050600c816002815181106103d2576103d161097b565b5b6020026020010181815250506011816003815181106103f4576103f361097b565b5b6020026020010181815250506016816004815181106104165761041561097b565b5b602002602001018181525050600081519050600083600281111561043d5761043c6106be565b5b90505b60008261044b61026b565b61045591906109d9565b90506000600184600d6104689190610a39565b61047061026b565b61047a91906109d9565b6104849190610a39565b90508482815181106104995761049861097b565b5b602002602001015181901b8317925083806104b390610a8f565b9450508484815181106104c9576104c861097b565b5b60200260200101518583815181106104e4576104e361097b565b5b602002602001018181525050505060008211610440576000803373ffffffffffffffffffffffffffffffffffffffff1673ffffffffffffffffffffffffffffffffffffffff16815260200190815260200160002081908060018154018082558091505060019003906000526020600020016000909190919091505550505050565b60606000803373ffffffffffffffffffffffffffffffffffffffff1673ffffffffffffffffffffffffffffffffffffffff1681526020019081526020016000208054806020026020016040519081016040528092919081815260200182805480156105ef57602002820191906000526020600020905b8154815260200190600101908083116105db575b5050505050905090565b6000601f601183901c169050919050565b6000601f600c83901c169050919050565b6000601f600283901c169050919050565b6000819050919050565b61063f8161062c565b82525050565b600060208201905061065a6000830184610636565b92915050565b600080fd5b61066e8161062c565b811461067957600080fd5b50565b60008135905061068b81610665565b92915050565b6000602082840312156106a7576106a6610660565b5b60006106b58482850161067c565b91505092915050565b7f4e487b7100000000000000000000000000000000000000000000000000000000600052602160045260246000fd5b600381106106fe576106fd6106be565b5b50565b600081905061070f826106ed565b919050565b600061071f82610701565b9050919050565b61072f81610714565b82525050565b600060208201905061074a6000830184610726565b92915050565b6003811061075d57600080fd5b50565b60008135905061076f81610750565b92915050565b60006020828403121561078b5761078a610660565b5b600061079984828501610760565b91505092915050565b600081519050919050565b600082825260208201905092915050565b6000819050602082019050919050565b6107d78161062c565b82525050565b60006107e983836107ce565b60208301905092915050565b6000602082019050919050565b600061080d826107a2565b61081781856107ad565b9350610822836107be565b8060005b8381101561085357815161083a88826107dd565b9750610845836107f5565b925050600181019050610826565b5085935050505092915050565b6000602082019050818103600083015261087a8184610802565b905092915050565b6000819050919050565b61089d6108988261062c565b610882565b82525050565b60006108af828561088c565b6020820191506108bf828461088c565b6020820191508190509392505050565b600082825260208201905092915050565b7f506c656173652073656e64206d6f7265206d6f6e657900000000000000000000600082015250565b60006109166016836108cf565b9150610921826108e0565b602082019050919050565b6000602082019050818103600083015261094581610909565b9050919050565b7f4e487b7100000000000000000000000000000000000000000000000000000000600052604160045260246000fd5b7f4e487b7100000000000000000000000000000000000000000000000000000000600052603260045260246000fd5b7f4e487b7100000000000000000000000000000000000000000000000000000000600052601260045260246000fd5b60006109e48261062c565b91506109ef8361062c565b9250826109ff576109fe6109aa565b5b828206905092915050565b7f4e487b7100000000000000000000000000000000000000000000000000000000600052601160045260246000fd5b6000610a448261062c565b9150610a4f8361062c565b9250827fffffffffffffffffffffffffffffffffffffffffffffffffffffffffffffffff03821115610a8457610a83610a0a565b5b828201905092915050565b6000610a9a8261062c565b91506000821415610aae57610aad610a0a565b5b60018203905091905056fea2646970667358221220bf4ce13ebff3d49b1617e01b9328986faf038b11bd2c35198a4ac81b7f40ea1c64736f6c634300080a0033",
          "opcodes": "PUSH1 0x80 PUSH1 0x40 MSTORE CALLVALUE DUP1 ISZERO PUSH2 0x10 JUMPI PUSH1 0x0 DUP1 REVERT JUMPDEST POP PUSH2 0xAEF DUP1 PUSH2 0x20 PUSH1 0x0 CODECOPY PUSH1 0x0 RETURN INVALID PUSH1 0x80 PUSH1 0x40 MSTORE PUSH1 0x4 CALLDATASIZE LT PUSH2 0x86 JUMPI PUSH1 0x0 CALLDATALOAD PUSH1 0xE0 SHR DUP1 PUSH4 0x5E7E236D GT PUSH2 0x59 JUMPI DUP1 PUSH4 0x5E7E236D EQ PUSH2 0x16D JUMPI DUP1 PUSH4 0x9A8D2882 EQ PUSH2 0x189 JUMPI DUP1 PUSH4 0xBAA5B27F EQ PUSH2 0x1B4 JUMPI DUP1 PUSH4 0xE15F2255 EQ PUSH2 0x1F1 JUMPI DUP1 PUSH4 0xE53FBDA6 EQ PUSH2 0x22E JUMPI PUSH2 0x86 JUMP JUMPDEST DUP1 PUSH4 0x2E4AF01 EQ PUSH2 0x8B JUMPI DUP1 PUSH4 0x3FC70F2C EQ PUSH2 0xB6 JUMPI DUP1 PUSH4 0x512D62DF EQ PUSH2 0xF3 JUMPI DUP1 PUSH4 0x5BC0A623 EQ PUSH2 0x130 JUMPI JUMPDEST PUSH1 0x0 DUP1 REVERT JUMPDEST CALLVALUE DUP1 ISZERO PUSH2 0x97 JUMPI PUSH1 0x0 DUP1 REVERT JUMPDEST POP PUSH2 0xA0 PUSH2 0x26B JUMP JUMPDEST PUSH1 0x40 MLOAD PUSH2 0xAD SWAP2 SWAP1 PUSH2 0x645 JUMP JUMPDEST PUSH1 0x40 MLOAD DUP1 SWAP2 SUB SWAP1 RETURN JUMPDEST CALLVALUE DUP1 ISZERO PUSH2 0xC2 JUMPI PUSH1 0x0 DUP1 REVERT JUMPDEST POP PUSH2 0xDD PUSH1 0x4 DUP1 CALLDATASIZE SUB DUP2 ADD SWAP1 PUSH2 0xD8 SWAP2 SWAP1 PUSH2 0x691 JUMP JUMPDEST PUSH2 0x29E JUMP JUMPDEST PUSH1 0x40 MLOAD PUSH2 0xEA SWAP2 SWAP1 PUSH2 0x645 JUMP JUMPDEST PUSH1 0x40 MLOAD DUP1 SWAP2 SUB SWAP1 RETURN JUMPDEST CALLVALUE DUP1 ISZERO PUSH2 0xFF JUMPI PUSH1 0x0 DUP1 REVERT JUMPDEST POP PUSH2 0x11A PUSH1 0x4 DUP1 CALLDATASIZE SUB DUP2 ADD SWAP1 PUSH2 0x115 SWAP2 SWAP1 PUSH2 0x691 JUMP JUMPDEST PUSH2 0x2AF JUMP JUMPDEST PUSH1 0x40 MLOAD PUSH2 0x127 SWAP2 SWAP1 PUSH2 0x735 JUMP JUMPDEST PUSH1 0x40 MLOAD DUP1 SWAP2 SUB SWAP1 RETURN JUMPDEST CALLVALUE DUP1 ISZERO PUSH2 0x13C JUMPI PUSH1 0x0 DUP1 REVERT JUMPDEST POP PUSH2 0x157 PUSH1 0x4 DUP1 CALLDATASIZE SUB DUP2 ADD SWAP1 PUSH2 0x152 SWAP2 SWAP1 PUSH2 0x691 JUMP JUMPDEST PUSH2 0x2CF JUMP JUMPDEST PUSH1 0x40 MLOAD PUSH2 0x164 SWAP2 SWAP1 PUSH2 0x645 JUMP JUMPDEST PUSH1 0x40 MLOAD DUP1 SWAP2 SUB SWAP1 RETURN JUMPDEST PUSH2 0x187 PUSH1 0x4 DUP1 CALLDATASIZE SUB DUP2 ADD SWAP1 PUSH2 0x182 SWAP2 SWAP1 PUSH2 0x775 JUMP JUMPDEST PUSH2 0x2E0 JUMP JUMPDEST STOP JUMPDEST CALLVALUE DUP1 ISZERO PUSH2 0x195 JUMPI PUSH1 0x0 DUP1 REVERT JUMPDEST POP PUSH2 0x19E PUSH2 0x565 JUMP JUMPDEST PUSH1 0x40 MLOAD PUSH2 0x1AB SWAP2 SWAP1 PUSH2 0x860 JUMP JUMPDEST PUSH1 0x40 MLOAD DUP1 SWAP2 SUB SWAP1 RETURN JUMPDEST CALLVALUE DUP1 ISZERO PUSH2 0x1C0 JUMPI PUSH1 0x0 DUP1 REVERT JUMPDEST POP PUSH2 0x1DB PUSH1 0x4 DUP1 CALLDATASIZE SUB DUP2 ADD SWAP1 PUSH2 0x1D6 SWAP2 SWAP1 PUSH2 0x691 JUMP JUMPDEST PUSH2 0x5F9 JUMP JUMPDEST PUSH1 0x40 MLOAD PUSH2 0x1E8 SWAP2 SWAP1 PUSH2 0x645 JUMP JUMPDEST PUSH1 0x40 MLOAD DUP1 SWAP2 SUB SWAP1 RETURN JUMPDEST CALLVALUE DUP1 ISZERO PUSH2 0x1FD JUMPI PUSH1 0x0 DUP1 REVERT JUMPDEST POP PUSH2 0x218 PUSH1 0x4 DUP1 CALLDATASIZE SUB DUP2 ADD SWAP1 PUSH2 0x213 SWAP2 SWAP1 PUSH2 0x691 JUMP JUMPDEST PUSH2 0x60A JUMP JUMPDEST PUSH1 0x40 MLOAD PUSH2 0x225 SWAP2 SWAP1 PUSH2 0x645 JUMP JUMPDEST PUSH1 0x40 MLOAD DUP1 SWAP2 SUB SWAP1 RETURN JUMPDEST CALLVALUE DUP1 ISZERO PUSH2 0x23A JUMPI PUSH1 0x0 DUP1 REVERT JUMPDEST POP PUSH2 0x255 PUSH1 0x4 DUP1 CALLDATASIZE SUB DUP2 ADD SWAP1 PUSH2 0x250 SWAP2 SWAP1 PUSH2 0x691 JUMP JUMPDEST PUSH2 0x61B JUMP JUMPDEST PUSH1 0x40 MLOAD PUSH2 0x262 SWAP2 SWAP1 PUSH2 0x645 JUMP JUMPDEST PUSH1 0x40 MLOAD DUP1 SWAP2 SUB SWAP1 RETURN JUMPDEST PUSH1 0x0 DIFFICULTY TIMESTAMP PUSH1 0x40 MLOAD PUSH1 0x20 ADD PUSH2 0x280 SWAP3 SWAP2 SWAP1 PUSH2 0x8A3 JUMP JUMPDEST PUSH1 0x40 MLOAD PUSH1 0x20 DUP2 DUP4 SUB SUB DUP2 MSTORE SWAP1 PUSH1 0x40 MSTORE DUP1 MLOAD SWAP1 PUSH1 0x20 ADD KECCAK256 PUSH1 0x0 SHR SWAP1 POP SWAP1 JUMP JUMPDEST PUSH1 0x0 PUSH1 0x1F PUSH1 0x7 DUP4 SWAP1 SHR AND SWAP1 POP SWAP2 SWAP1 POP JUMP JUMPDEST PUSH1 0x0 PUSH1 0x20 DUP3 SWAP1 SHR PUSH1 0x2 DUP2 GT ISZERO PUSH2 0x2C8 JUMPI PUSH2 0x2C7 PUSH2 0x6BE JUMP JUMPDEST JUMPDEST SWAP1 POP SWAP2 SWAP1 POP JUMP JUMPDEST PUSH1 0x0 PUSH1 0x1F PUSH1 0x16 DUP4 SWAP1 SHR AND SWAP1 POP SWAP2 SWAP1 POP JUMP JUMPDEST PUSH7 0xB1A2BC2EC50000 CALLVALUE LT ISZERO PUSH2 0x32A JUMPI PUSH1 0x40 MLOAD PUSH32 0x8C379A000000000000000000000000000000000000000000000000000000000 DUP2 MSTORE PUSH1 0x4 ADD PUSH2 0x321 SWAP1 PUSH2 0x92C JUMP JUMPDEST PUSH1 0x40 MLOAD DUP1 SWAP2 SUB SWAP1 REVERT JUMPDEST PUSH1 0x0 PUSH1 0x5 PUSH8 0xFFFFFFFFFFFFFFFF DUP2 GT ISZERO PUSH2 0x347 JUMPI PUSH2 0x346 PUSH2 0x94C JUMP JUMPDEST JUMPDEST PUSH1 0x40 MLOAD SWAP1 DUP1 DUP3 MSTORE DUP1 PUSH1 0x20 MUL PUSH1 0x20 ADD DUP3 ADD PUSH1 0x40 MSTORE DUP1 ISZERO PUSH2 0x375 JUMPI DUP2 PUSH1 0x20 ADD PUSH1 0x20 DUP3 MUL DUP1 CALLDATASIZE DUP4 CALLDATACOPY DUP1 DUP3 ADD SWAP2 POP POP SWAP1 POP JUMPDEST POP SWAP1 POP PUSH1 0x2 DUP2 PUSH1 0x0 DUP2 MLOAD DUP2 LT PUSH2 0x38E JUMPI PUSH2 0x38D PUSH2 0x97B JUMP JUMPDEST JUMPDEST PUSH1 0x20 MUL PUSH1 0x20 ADD ADD DUP2 DUP2 MSTORE POP POP PUSH1 0x7 DUP2 PUSH1 0x1 DUP2 MLOAD DUP2 LT PUSH2 0x3B0 JUMPI PUSH2 0x3AF PUSH2 0x97B JUMP JUMPDEST JUMPDEST PUSH1 0x20 MUL PUSH1 0x20 ADD ADD DUP2 DUP2 MSTORE POP POP PUSH1 0xC DUP2 PUSH1 0x2 DUP2 MLOAD DUP2 LT PUSH2 0x3D2 JUMPI PUSH2 0x3D1 PUSH2 0x97B JUMP JUMPDEST JUMPDEST PUSH1 0x20 MUL PUSH1 0x20 ADD ADD DUP2 DUP2 MSTORE POP POP PUSH1 0x11 DUP2 PUSH1 0x3 DUP2 MLOAD DUP2 LT PUSH2 0x3F4 JUMPI PUSH2 0x3F3 PUSH2 0x97B JUMP JUMPDEST JUMPDEST PUSH1 0x20 MUL PUSH1 0x20 ADD ADD DUP2 DUP2 MSTORE POP POP PUSH1 0x16 DUP2 PUSH1 0x4 DUP2 MLOAD DUP2 LT PUSH2 0x416 JUMPI PUSH2 0x415 PUSH2 0x97B JUMP JUMPDEST JUMPDEST PUSH1 0x20 MUL PUSH1 0x20 ADD ADD DUP2 DUP2 MSTORE POP POP PUSH1 0x0 DUP2 MLOAD SWAP1 POP PUSH1 0x0 DUP4 PUSH1 0x2 DUP2 GT ISZERO PUSH2 0x43D JUMPI PUSH2 0x43C PUSH2 0x6BE JUMP JUMPDEST JUMPDEST SWAP1 POP JUMPDEST PUSH1 0x0 DUP3 PUSH2 0x44B PUSH2 0x26B JUMP JUMPDEST PUSH2 0x455 SWAP2 SWAP1 PUSH2 0x9D9 JUMP JUMPDEST SWAP1 POP PUSH1 0x0 PUSH1 0x1 DUP5 PUSH1 0xD PUSH2 0x468 SWAP2 SWAP1 PUSH2 0xA39 JUMP JUMPDEST PUSH2 0x470 PUSH2 0x26B JUMP JUMPDEST PUSH2 0x47A SWAP2 SWAP1 PUSH2 0x9D9 JUMP JUMPDEST PUSH2 0x484 SWAP2 SWAP1 PUSH2 0xA39 JUMP JUMPDEST SWAP1 POP DUP5 DUP3 DUP2 MLOAD DUP2 LT PUSH2 0x499 JUMPI PUSH2 0x498 PUSH2 0x97B JUMP JUMPDEST JUMPDEST PUSH1 0x20 MUL PUSH1 0x20 ADD ADD MLOAD DUP2 SWAP1 SHL DUP4 OR SWAP3 POP DUP4 DUP1 PUSH2 0x4B3 SWAP1 PUSH2 0xA8F JUMP JUMPDEST SWAP5 POP POP DUP5 DUP5 DUP2 MLOAD DUP2 LT PUSH2 0x4C9 JUMPI PUSH2 0x4C8 PUSH2 0x97B JUMP JUMPDEST JUMPDEST PUSH1 0x20 MUL PUSH1 0x20 ADD ADD MLOAD DUP6 DUP4 DUP2 MLOAD DUP2 LT PUSH2 0x4E4 JUMPI PUSH2 0x4E3 PUSH2 0x97B JUMP JUMPDEST JUMPDEST PUSH1 0x20 MUL PUSH1 0x20 ADD ADD DUP2 DUP2 MSTORE POP POP POP POP PUSH1 0x0 DUP3 GT PUSH2 0x440 JUMPI PUSH1 0x0 DUP1 CALLER PUSH20 0xFFFFFFFFFFFFFFFFFFFFFFFFFFFFFFFFFFFFFFFF AND PUSH20 0xFFFFFFFFFFFFFFFFFFFFFFFFFFFFFFFFFFFFFFFF AND DUP2 MSTORE PUSH1 0x20 ADD SWAP1 DUP2 MSTORE PUSH1 0x20 ADD PUSH1 0x0 KECCAK256 DUP2 SWAP1 DUP1 PUSH1 0x1 DUP2 SLOAD ADD DUP1 DUP3 SSTORE DUP1 SWAP2 POP POP PUSH1 0x1 SWAP1 SUB SWAP1 PUSH1 0x0 MSTORE PUSH1 0x20 PUSH1 0x0 KECCAK256 ADD PUSH1 0x0 SWAP1 SWAP2 SWAP1 SWAP2 SWAP1 SWAP2 POP SSTORE POP POP POP POP JUMP JUMPDEST PUSH1 0x60 PUSH1 0x0 DUP1 CALLER PUSH20 0xFFFFFFFFFFFFFFFFFFFFFFFFFFFFFFFFFFFFFFFF AND PUSH20 0xFFFFFFFFFFFFFFFFFFFFFFFFFFFFFFFFFFFFFFFF AND DUP2 MSTORE PUSH1 0x20 ADD SWAP1 DUP2 MSTORE PUSH1 0x20 ADD PUSH1 0x0 KECCAK256 DUP1 SLOAD DUP1 PUSH1 0x20 MUL PUSH1 0x20 ADD PUSH1 0x40 MLOAD SWAP1 DUP2 ADD PUSH1 0x40 MSTORE DUP1 SWAP3 SWAP2 SWAP1 DUP2 DUP2 MSTORE PUSH1 0x20 ADD DUP3 DUP1 SLOAD DUP1 ISZERO PUSH2 0x5EF JUMPI PUSH1 0x20 MUL DUP3 ADD SWAP2 SWAP1 PUSH1 0x0 MSTORE PUSH1 0x20 PUSH1 0x0 KECCAK256 SWAP1 JUMPDEST DUP2 SLOAD DUP2 MSTORE PUSH1 0x20 ADD SWAP1 PUSH1 0x1 ADD SWAP1 DUP1 DUP4 GT PUSH2 0x5DB JUMPI JUMPDEST POP POP POP POP POP SWAP1 POP SWAP1 JUMP JUMPDEST PUSH1 0x0 PUSH1 0x1F PUSH1 0x11 DUP4 SWAP1 SHR AND SWAP1 POP SWAP2 SWAP1 POP JUMP JUMPDEST PUSH1 0x0 PUSH1 0x1F PUSH1 0xC DUP4 SWAP1 SHR AND SWAP1 POP SWAP2 SWAP1 POP JUMP JUMPDEST PUSH1 0x0 PUSH1 0x1F PUSH1 0x2 DUP4 SWAP1 SHR AND SWAP1 POP SWAP2 SWAP1 POP JUMP JUMPDEST PUSH1 0x0 DUP2 SWAP1 POP SWAP2 SWAP1 POP JUMP JUMPDEST PUSH2 0x63F DUP2 PUSH2 0x62C JUMP JUMPDEST DUP3 MSTORE POP POP JUMP JUMPDEST PUSH1 0x0 PUSH1 0x20 DUP3 ADD SWAP1 POP PUSH2 0x65A PUSH1 0x0 DUP4 ADD DUP5 PUSH2 0x636 JUMP JUMPDEST SWAP3 SWAP2 POP POP JUMP JUMPDEST PUSH1 0x0 DUP1 REVERT JUMPDEST PUSH2 0x66E DUP2 PUSH2 0x62C JUMP JUMPDEST DUP2 EQ PUSH2 0x679 JUMPI PUSH1 0x0 DUP1 REVERT JUMPDEST POP JUMP JUMPDEST PUSH1 0x0 DUP2 CALLDATALOAD SWAP1 POP PUSH2 0x68B DUP2 PUSH2 0x665 JUMP JUMPDEST SWAP3 SWAP2 POP POP JUMP JUMPDEST PUSH1 0x0 PUSH1 0x20 DUP3 DUP5 SUB SLT ISZERO PUSH2 0x6A7 JUMPI PUSH2 0x6A6 PUSH2 0x660 JUMP JUMPDEST JUMPDEST PUSH1 0x0 PUSH2 0x6B5 DUP5 DUP3 DUP6 ADD PUSH2 0x67C JUMP JUMPDEST SWAP2 POP POP SWAP3 SWAP2 POP POP JUMP JUMPDEST PUSH32 0x4E487B7100000000000000000000000000000000000000000000000000000000 PUSH1 0x0 MSTORE PUSH1 0x21 PUSH1 0x4 MSTORE PUSH1 0x24 PUSH1 0x0 REVERT JUMPDEST PUSH1 0x3 DUP2 LT PUSH2 0x6FE JUMPI PUSH2 0x6FD PUSH2 0x6BE JUMP JUMPDEST JUMPDEST POP JUMP JUMPDEST PUSH1 0x0 DUP2 SWAP1 POP PUSH2 0x70F DUP3 PUSH2 0x6ED JUMP JUMPDEST SWAP2 SWAP1 POP JUMP JUMPDEST PUSH1 0x0 PUSH2 0x71F DUP3 PUSH2 0x701 JUMP JUMPDEST SWAP1 POP SWAP2 SWAP1 POP JUMP JUMPDEST PUSH2 0x72F DUP2 PUSH2 0x714 JUMP JUMPDEST DUP3 MSTORE POP POP JUMP JUMPDEST PUSH1 0x0 PUSH1 0x20 DUP3 ADD SWAP1 POP PUSH2 0x74A PUSH1 0x0 DUP4 ADD DUP5 PUSH2 0x726 JUMP JUMPDEST SWAP3 SWAP2 POP POP JUMP JUMPDEST PUSH1 0x3 DUP2 LT PUSH2 0x75D JUMPI PUSH1 0x0 DUP1 REVERT JUMPDEST POP JUMP JUMPDEST PUSH1 0x0 DUP2 CALLDATALOAD SWAP1 POP PUSH2 0x76F DUP2 PUSH2 0x750 JUMP JUMPDEST SWAP3 SWAP2 POP POP JUMP JUMPDEST PUSH1 0x0 PUSH1 0x20 DUP3 DUP5 SUB SLT ISZERO PUSH2 0x78B JUMPI PUSH2 0x78A PUSH2 0x660 JUMP JUMPDEST JUMPDEST PUSH1 0x0 PUSH2 0x799 DUP5 DUP3 DUP6 ADD PUSH2 0x760 JUMP JUMPDEST SWAP2 POP POP SWAP3 SWAP2 POP POP JUMP JUMPDEST PUSH1 0x0 DUP2 MLOAD SWAP1 POP SWAP2 SWAP1 POP JUMP JUMPDEST PUSH1 0x0 DUP3 DUP3 MSTORE PUSH1 0x20 DUP3 ADD SWAP1 POP SWAP3 SWAP2 POP POP JUMP JUMPDEST PUSH1 0x0 DUP2 SWAP1 POP PUSH1 0x20 DUP3 ADD SWAP1 POP SWAP2 SWAP1 POP JUMP JUMPDEST PUSH2 0x7D7 DUP2 PUSH2 0x62C JUMP JUMPDEST DUP3 MSTORE POP POP JUMP JUMPDEST PUSH1 0x0 PUSH2 0x7E9 DUP4 DUP4 PUSH2 0x7CE JUMP JUMPDEST PUSH1 0x20 DUP4 ADD SWAP1 POP SWAP3 SWAP2 POP POP JUMP JUMPDEST PUSH1 0x0 PUSH1 0x20 DUP3 ADD SWAP1 POP SWAP2 SWAP1 POP JUMP JUMPDEST PUSH1 0x0 PUSH2 0x80D DUP3 PUSH2 0x7A2 JUMP JUMPDEST PUSH2 0x817 DUP2 DUP6 PUSH2 0x7AD JUMP JUMPDEST SWAP4 POP PUSH2 0x822 DUP4 PUSH2 0x7BE JUMP JUMPDEST DUP1 PUSH1 0x0 JUMPDEST DUP4 DUP2 LT ISZERO PUSH2 0x853 JUMPI DUP2 MLOAD PUSH2 0x83A DUP9 DUP3 PUSH2 0x7DD JUMP JUMPDEST SWAP8 POP PUSH2 0x845 DUP4 PUSH2 0x7F5 JUMP JUMPDEST SWAP3 POP POP PUSH1 0x1 DUP2 ADD SWAP1 POP PUSH2 0x826 JUMP JUMPDEST POP DUP6 SWAP4 POP POP POP POP SWAP3 SWAP2 POP POP JUMP JUMPDEST PUSH1 0x0 PUSH1 0x20 DUP3 ADD SWAP1 POP DUP2 DUP2 SUB PUSH1 0x0 DUP4 ADD MSTORE PUSH2 0x87A DUP2 DUP5 PUSH2 0x802 JUMP JUMPDEST SWAP1 POP SWAP3 SWAP2 POP POP JUMP JUMPDEST PUSH1 0x0 DUP2 SWAP1 POP SWAP2 SWAP1 POP JUMP JUMPDEST PUSH2 0x89D PUSH2 0x898 DUP3 PUSH2 0x62C JUMP JUMPDEST PUSH2 0x882 JUMP JUMPDEST DUP3 MSTORE POP POP JUMP JUMPDEST PUSH1 0x0 PUSH2 0x8AF DUP3 DUP6 PUSH2 0x88C JUMP JUMPDEST PUSH1 0x20 DUP3 ADD SWAP2 POP PUSH2 0x8BF DUP3 DUP5 PUSH2 0x88C JUMP JUMPDEST PUSH1 0x20 DUP3 ADD SWAP2 POP DUP2 SWAP1 POP SWAP4 SWAP3 POP POP POP JUMP JUMPDEST PUSH1 0x0 DUP3 DUP3 MSTORE PUSH1 0x20 DUP3 ADD SWAP1 POP SWAP3 SWAP2 POP POP JUMP JUMPDEST PUSH32 0x506C656173652073656E64206D6F7265206D6F6E657900000000000000000000 PUSH1 0x0 DUP3 ADD MSTORE POP JUMP JUMPDEST PUSH1 0x0 PUSH2 0x916 PUSH1 0x16 DUP4 PUSH2 0x8CF JUMP JUMPDEST SWAP2 POP PUSH2 0x921 DUP3 PUSH2 0x8E0 JUMP JUMPDEST PUSH1 0x20 DUP3 ADD SWAP1 POP SWAP2 SWAP1 POP JUMP JUMPDEST PUSH1 0x0 PUSH1 0x20 DUP3 ADD SWAP1 POP DUP2 DUP2 SUB PUSH1 0x0 DUP4 ADD MSTORE PUSH2 0x945 DUP2 PUSH2 0x909 JUMP JUMPDEST SWAP1 POP SWAP2 SWAP1 POP JUMP JUMPDEST PUSH32 0x4E487B7100000000000000000000000000000000000000000000000000000000 PUSH1 0x0 MSTORE PUSH1 0x41 PUSH1 0x4 MSTORE PUSH1 0x24 PUSH1 0x0 REVERT JUMPDEST PUSH32 0x4E487B7100000000000000000000000000000000000000000000000000000000 PUSH1 0x0 MSTORE PUSH1 0x32 PUSH1 0x4 MSTORE PUSH1 0x24 PUSH1 0x0 REVERT JUMPDEST PUSH32 0x4E487B7100000000000000000000000000000000000000000000000000000000 PUSH1 0x0 MSTORE PUSH1 0x12 PUSH1 0x4 MSTORE PUSH1 0x24 PUSH1 0x0 REVERT JUMPDEST PUSH1 0x0 PUSH2 0x9E4 DUP3 PUSH2 0x62C JUMP JUMPDEST SWAP2 POP PUSH2 0x9EF DUP4 PUSH2 0x62C JUMP JUMPDEST SWAP3 POP DUP3 PUSH2 0x9FF JUMPI PUSH2 0x9FE PUSH2 0x9AA JUMP JUMPDEST JUMPDEST DUP3 DUP3 MOD SWAP1 POP SWAP3 SWAP2 POP POP JUMP JUMPDEST PUSH32 0x4E487B7100000000000000000000000000000000000000000000000000000000 PUSH1 0x0 MSTORE PUSH1 0x11 PUSH1 0x4 MSTORE PUSH1 0x24 PUSH1 0x0 REVERT JUMPDEST PUSH1 0x0 PUSH2 0xA44 DUP3 PUSH2 0x62C JUMP JUMPDEST SWAP2 POP PUSH2 0xA4F DUP4 PUSH2 0x62C JUMP JUMPDEST SWAP3 POP DUP3 PUSH32 0xFFFFFFFFFFFFFFFFFFFFFFFFFFFFFFFFFFFFFFFFFFFFFFFFFFFFFFFFFFFFFFFF SUB DUP3 GT ISZERO PUSH2 0xA84 JUMPI PUSH2 0xA83 PUSH2 0xA0A JUMP JUMPDEST JUMPDEST DUP3 DUP3 ADD SWAP1 POP SWAP3 SWAP2 POP POP JUMP JUMPDEST PUSH1 0x0 PUSH2 0xA9A DUP3 PUSH2 0x62C JUMP JUMPDEST SWAP2 POP PUSH1 0x0 DUP3 EQ ISZERO PUSH2 0xAAE JUMPI PUSH2 0xAAD PUSH2 0xA0A JUMP JUMPDEST JUMPDEST PUSH1 0x1 DUP3 SUB SWAP1 POP SWAP2 SWAP1 POP JUMP INVALID LOG2 PUSH5 0x6970667358 0x22 SLT KECCAK256 0xBF 0x4C 0xE1 RETURNDATACOPY 0xBF RETURN 0xD4 SWAP12 AND OR 0xE0 SHL SWAP4 0x28 SWAP9 PUSH16 0xAF038B11BD2C35198A4AC81B7F40EA1C PUSH5 0x736F6C6343 STOP ADDMOD EXP STOP CALLER "
        },
        "methodIdentifiers": {
          "createHero(uint8)": "5e7e236d",
          "generateRandom()": "02e4af01",
          "getClass(uint256)": "512d62df",
          "getDexterity(uint256)": "e15f2255",
          "getHealth(uint256)": "3fc70f2c",
          "getHeroes()": "9a8d2882",
          "getIntelligence(uint256)": "baa5b27f",
          "getMagic(uint256)": "5bc0a623",
          "getStrength(uint256)": "e53fbda6"
        }
      }
    }
  }
}