{
  "contracts/TestHero.sol": {
    "TestHero": {
      "abi": [
        {
          "inputs": [
            {
              "internalType": "enum Hero.Class",
              "name": "class",
              "type": "uint8"
            }
          ],
          "name": "createHero",
          "outputs": [],
          "stateMutability": "payable",
          "type": "function"
        },
        {
          "inputs": [],
          "name": "generateRandom",
          "outputs": [
            {
              "internalType": "uint256",
              "name": "",
              "type": "uint256"
            }
          ],
          "stateMutability": "view",
          "type": "function"
        },
        {
          "inputs": [
            {
              "internalType": "uint256",
              "name": "hero",
              "type": "uint256"
            }
          ],
          "name": "getClass",
          "outputs": [
            {
              "internalType": "enum Hero.Class",
              "name": "",
              "type": "uint8"
            }
          ],
          "stateMutability": "pure",
          "type": "function"
        },
        {
          "inputs": [
            {
              "internalType": "uint256",
              "name": "hero",
              "type": "uint256"
            }
          ],
          "name": "getDexterity",
          "outputs": [
            {
              "internalType": "uint256",
              "name": "",
              "type": "uint256"
            }
          ],
          "stateMutability": "pure",
          "type": "function"
        },
        {
          "inputs": [
            {
              "internalType": "uint256",
              "name": "hero",
              "type": "uint256"
            }
          ],
          "name": "getHealth",
          "outputs": [
            {
              "internalType": "uint256",
              "name": "",
              "type": "uint256"
            }
          ],
          "stateMutability": "pure",
          "type": "function"
        },
        {
          "inputs": [],
          "name": "getHeroes",
          "outputs": [
            {
              "internalType": "uint256[]",
              "name": "",
              "type": "uint256[]"
            }
          ],
          "stateMutability": "view",
          "type": "function"
        },
        {
          "inputs": [
            {
              "internalType": "uint256",
              "name": "hero",
              "type": "uint256"
            }
          ],
          "name": "getIntelligence",
          "outputs": [
            {
              "internalType": "uint256",
              "name": "",
              "type": "uint256"
            }
          ],
          "stateMutability": "pure",
          "type": "function"
        },
        {
          "inputs": [
            {
              "internalType": "uint256",
              "name": "hero",
              "type": "uint256"
            }
          ],
          "name": "getMagic",
          "outputs": [
            {
              "internalType": "uint256",
              "name": "",
              "type": "uint256"
            }
          ],
          "stateMutability": "pure",
          "type": "function"
        },
        {
          "inputs": [
            {
              "internalType": "uint256",
              "name": "hero",
              "type": "uint256"
            }
          ],
          "name": "getStrength",
          "outputs": [
            {
              "internalType": "uint256",
              "name": "",
              "type": "uint256"
            }
          ],
          "stateMutability": "pure",
          "type": "function"
        },
        {
          "inputs": [
            {
              "internalType": "uint256",
              "name": "r",
              "type": "uint256"
            }
          ],
          "name": "setRandom",
          "outputs": [],
          "stateMutability": "nonpayable",
          "type": "function"
        }
      ],
      "evm": {
        "bytecode": {
          "linkReferences": {},
          "object": "608060405234801561001057600080fd5b50610ab7806100206000396000f3fe6080604052600436106100915760003560e01c8063729e7cf611610059578063729e7cf6146101945780639a8d2882146101bd578063baa5b27f146101e8578063e15f225514610225578063e53fbda61461026257610091565b806302e4af01146100965780633fc70f2c146100c1578063512d62df146100fe5780635bc0a6231461013b5780635e7e236d14610178575b600080fd5b3480156100a257600080fd5b506100ab61029f565b6040516100b8919061065a565b60405180910390f35b3480156100cd57600080fd5b506100e860048036038101906100e391906106a6565b6102a9565b6040516100f5919061065a565b60405180910390f35b34801561010a57600080fd5b50610125600480360381019061012091906106a6565b6102ba565b604051610132919061074a565b60405180910390f35b34801561014757600080fd5b50610162600480360381019061015d91906106a6565b6102da565b60405161016f919061065a565b60405180910390f35b610192600480360381019061018d919061078a565b6102eb565b005b3480156101a057600080fd5b506101bb60048036038101906101b691906106a6565b610570565b005b3480156101c957600080fd5b506101d261057a565b6040516101df9190610875565b60405180910390f35b3480156101f457600080fd5b5061020f600480360381019061020a91906106a6565b61060e565b60405161021c919061065a565b60405180910390f35b34801561023157600080fd5b5061024c600480360381019061024791906106a6565b61061f565b604051610259919061065a565b60405180910390f35b34801561026e57600080fd5b50610289600480360381019061028491906106a6565b610630565b604051610296919061065a565b60405180910390f35b6000600154905090565b6000601f600783901c169050919050565b6000602082901c60028111156102d3576102d26106d3565b5b9050919050565b6000601f601683901c169050919050565b66b1a2bc2ec50000341015610335576040517f08c379a000000000000000000000000000000000000000000000000000000000815260040161032c906108f4565b60405180910390fd5b6000600567ffffffffffffffff81111561035257610351610914565b5b6040519080825280602002602001820160405280156103805781602001602082028036833780820191505090505b50905060028160008151811061039957610398610943565b5b6020026020010181815250506007816001815181106103bb576103ba610943565b5b602002602001018181525050600c816002815181106103dd576103dc610943565b5b6020026020010181815250506011816003815181106103ff576103fe610943565b5b60200260200101818152505060168160048151811061042157610420610943565b5b6020026020010181815250506000815190506000836002811115610448576104476106d3565b5b90505b60008261045661029f565b61046091906109a1565b90506000600184600d6104739190610a01565b61047b61029f565b61048591906109a1565b61048f9190610a01565b90508482815181106104a4576104a3610943565b5b602002602001015181901b8317925083806104be90610a57565b9450508484815181106104d4576104d3610943565b5b60200260200101518583815181106104ef576104ee610943565b5b60200260200101818152505050506000821161044b576000803373ffffffffffffffffffffffffffffffffffffffff1673ffffffffffffffffffffffffffffffffffffffff16815260200190815260200160002081908060018154018082558091505060019003906000526020600020016000909190919091505550505050565b8060018190555050565b60606000803373ffffffffffffffffffffffffffffffffffffffff1673ffffffffffffffffffffffffffffffffffffffff16815260200190815260200160002080548060200260200160405190810160405280929190818152602001828054801561060457602002820191906000526020600020905b8154815260200190600101908083116105f0575b5050505050905090565b6000601f601183901c169050919050565b6000601f600c83901c169050919050565b6000601f600283901c169050919050565b6000819050919050565b61065481610641565b82525050565b600060208201905061066f600083018461064b565b92915050565b600080fd5b61068381610641565b811461068e57600080fd5b50565b6000813590506106a08161067a565b92915050565b6000602082840312156106bc576106bb610675565b5b60006106ca84828501610691565b91505092915050565b7f4e487b7100000000000000000000000000000000000000000000000000000000600052602160045260246000fd5b60038110610713576107126106d3565b5b50565b600081905061072482610702565b919050565b600061073482610716565b9050919050565b61074481610729565b82525050565b600060208201905061075f600083018461073b565b92915050565b6003811061077257600080fd5b50565b60008135905061078481610765565b92915050565b6000602082840312156107a05761079f610675565b5b60006107ae84828501610775565b91505092915050565b600081519050919050565b600082825260208201905092915050565b6000819050602082019050919050565b6107ec81610641565b82525050565b60006107fe83836107e3565b60208301905092915050565b6000602082019050919050565b6000610822826107b7565b61082c81856107c2565b9350610837836107d3565b8060005b8381101561086857815161084f88826107f2565b975061085a8361080a565b92505060018101905061083b565b5085935050505092915050565b6000602082019050818103600083015261088f8184610817565b905092915050565b600082825260208201905092915050565b7f506c656173652073656e64206d6f7265206d6f6e657900000000000000000000600082015250565b60006108de601683610897565b91506108e9826108a8565b602082019050919050565b6000602082019050818103600083015261090d816108d1565b9050919050565b7f4e487b7100000000000000000000000000000000000000000000000000000000600052604160045260246000fd5b7f4e487b7100000000000000000000000000000000000000000000000000000000600052603260045260246000fd5b7f4e487b7100000000000000000000000000000000000000000000000000000000600052601260045260246000fd5b60006109ac82610641565b91506109b783610641565b9250826109c7576109c6610972565b5b828206905092915050565b7f4e487b7100000000000000000000000000000000000000000000000000000000600052601160045260246000fd5b6000610a0c82610641565b9150610a1783610641565b9250827fffffffffffffffffffffffffffffffffffffffffffffffffffffffffffffffff03821115610a4c57610a4b6109d2565b5b828201905092915050565b6000610a6282610641565b91506000821415610a7657610a756109d2565b5b60018203905091905056fea26469706673582212200e3692ca2e8a6f99f124c8a232160862bff0077f15b85ebd67cfcb6a67da2bd964736f6c634300080a0033",
          "opcodes": "PUSH1 0x80 PUSH1 0x40 MSTORE CALLVALUE DUP1 ISZERO PUSH2 0x10 JUMPI PUSH1 0x0 DUP1 REVERT JUMPDEST POP PUSH2 0xAB7 DUP1 PUSH2 0x20 PUSH1 0x0 CODECOPY PUSH1 0x0 RETURN INVALID PUSH1 0x80 PUSH1 0x40 MSTORE PUSH1 0x4 CALLDATASIZE LT PUSH2 0x91 JUMPI PUSH1 0x0 CALLDATALOAD PUSH1 0xE0 SHR DUP1 PUSH4 0x729E7CF6 GT PUSH2 0x59 JUMPI DUP1 PUSH4 0x729E7CF6 EQ PUSH2 0x194 JUMPI DUP1 PUSH4 0x9A8D2882 EQ PUSH2 0x1BD JUMPI DUP1 PUSH4 0xBAA5B27F EQ PUSH2 0x1E8 JUMPI DUP1 PUSH4 0xE15F2255 EQ PUSH2 0x225 JUMPI DUP1 PUSH4 0xE53FBDA6 EQ PUSH2 0x262 JUMPI PUSH2 0x91 JUMP JUMPDEST DUP1 PUSH4 0x2E4AF01 EQ PUSH2 0x96 JUMPI DUP1 PUSH4 0x3FC70F2C EQ PUSH2 0xC1 JUMPI DUP1 PUSH4 0x512D62DF EQ PUSH2 0xFE JUMPI DUP1 PUSH4 0x5BC0A623 EQ PUSH2 0x13B JUMPI DUP1 PUSH4 0x5E7E236D EQ PUSH2 0x178 JUMPI JUMPDEST PUSH1 0x0 DUP1 REVERT JUMPDEST CALLVALUE DUP1 ISZERO PUSH2 0xA2 JUMPI PUSH1 0x0 DUP1 REVERT JUMPDEST POP PUSH2 0xAB PUSH2 0x29F JUMP JUMPDEST PUSH1 0x40 MLOAD PUSH2 0xB8 SWAP2 SWAP1 PUSH2 0x65A JUMP JUMPDEST PUSH1 0x40 MLOAD DUP1 SWAP2 SUB SWAP1 RETURN JUMPDEST CALLVALUE DUP1 ISZERO PUSH2 0xCD JUMPI PUSH1 0x0 DUP1 REVERT JUMPDEST POP PUSH2 0xE8 PUSH1 0x4 DUP1 CALLDATASIZE SUB DUP2 ADD SWAP1 PUSH2 0xE3 SWAP2 SWAP1 PUSH2 0x6A6 JUMP JUMPDEST PUSH2 0x2A9 JUMP JUMPDEST PUSH1 0x40 MLOAD PUSH2 0xF5 SWAP2 SWAP1 PUSH2 0x65A JUMP JUMPDEST PUSH1 0x40 MLOAD DUP1 SWAP2 SUB SWAP1 RETURN JUMPDEST CALLVALUE DUP1 ISZERO PUSH2 0x10A JUMPI PUSH1 0x0 DUP1 REVERT JUMPDEST POP PUSH2 0x125 PUSH1 0x4 DUP1 CALLDATASIZE SUB DUP2 ADD SWAP1 PUSH2 0x120 SWAP2 SWAP1 PUSH2 0x6A6 JUMP JUMPDEST PUSH2 0x2BA JUMP JUMPDEST PUSH1 0x40 MLOAD PUSH2 0x132 SWAP2 SWAP1 PUSH2 0x74A JUMP JUMPDEST PUSH1 0x40 MLOAD DUP1 SWAP2 SUB SWAP1 RETURN JUMPDEST CALLVALUE DUP1 ISZERO PUSH2 0x147 JUMPI PUSH1 0x0 DUP1 REVERT JUMPDEST POP PUSH2 0x162 PUSH1 0x4 DUP1 CALLDATASIZE SUB DUP2 ADD SWAP1 PUSH2 0x15D SWAP2 SWAP1 PUSH2 0x6A6 JUMP JUMPDEST PUSH2 0x2DA JUMP JUMPDEST PUSH1 0x40 MLOAD PUSH2 0x16F SWAP2 SWAP1 PUSH2 0x65A JUMP JUMPDEST PUSH1 0x40 MLOAD DUP1 SWAP2 SUB SWAP1 RETURN JUMPDEST PUSH2 0x192 PUSH1 0x4 DUP1 CALLDATASIZE SUB DUP2 ADD SWAP1 PUSH2 0x18D SWAP2 SWAP1 PUSH2 0x78A JUMP JUMPDEST PUSH2 0x2EB JUMP JUMPDEST STOP JUMPDEST CALLVALUE DUP1 ISZERO PUSH2 0x1A0 JUMPI PUSH1 0x0 DUP1 REVERT JUMPDEST POP PUSH2 0x1BB PUSH1 0x4 DUP1 CALLDATASIZE SUB DUP2 ADD SWAP1 PUSH2 0x1B6 SWAP2 SWAP1 PUSH2 0x6A6 JUMP JUMPDEST PUSH2 0x570 JUMP JUMPDEST STOP JUMPDEST CALLVALUE DUP1 ISZERO PUSH2 0x1C9 JUMPI PUSH1 0x0 DUP1 REVERT JUMPDEST POP PUSH2 0x1D2 PUSH2 0x57A JUMP JUMPDEST PUSH1 0x40 MLOAD PUSH2 0x1DF SWAP2 SWAP1 PUSH2 0x875 JUMP JUMPDEST PUSH1 0x40 MLOAD DUP1 SWAP2 SUB SWAP1 RETURN JUMPDEST CALLVALUE DUP1 ISZERO PUSH2 0x1F4 JUMPI PUSH1 0x0 DUP1 REVERT JUMPDEST POP PUSH2 0x20F PUSH1 0x4 DUP1 CALLDATASIZE SUB DUP2 ADD SWAP1 PUSH2 0x20A SWAP2 SWAP1 PUSH2 0x6A6 JUMP JUMPDEST PUSH2 0x60E JUMP JUMPDEST PUSH1 0x40 MLOAD PUSH2 0x21C SWAP2 SWAP1 PUSH2 0x65A JUMP JUMPDEST PUSH1 0x40 MLOAD DUP1 SWAP2 SUB SWAP1 RETURN JUMPDEST CALLVALUE DUP1 ISZERO PUSH2 0x231 JUMPI PUSH1 0x0 DUP1 REVERT JUMPDEST POP PUSH2 0x24C PUSH1 0x4 DUP1 CALLDATASIZE SUB DUP2 ADD SWAP1 PUSH2 0x247 SWAP2 SWAP1 PUSH2 0x6A6 JUMP JUMPDEST PUSH2 0x61F JUMP JUMPDEST PUSH1 0x40 MLOAD PUSH2 0x259 SWAP2 SWAP1 PUSH2 0x65A JUMP JUMPDEST PUSH1 0x40 MLOAD DUP1 SWAP2 SUB SWAP1 RETURN JUMPDEST CALLVALUE DUP1 ISZERO PUSH2 0x26E JUMPI PUSH1 0x0 DUP1 REVERT JUMPDEST POP PUSH2 0x289 PUSH1 0x4 DUP1 CALLDATASIZE SUB DUP2 ADD SWAP1 PUSH2 0x284 SWAP2 SWAP1 PUSH2 0x6A6 JUMP JUMPDEST PUSH2 0x630 JUMP JUMPDEST PUSH1 0x40 MLOAD PUSH2 0x296 SWAP2 SWAP1 PUSH2 0x65A JUMP JUMPDEST PUSH1 0x40 MLOAD DUP1 SWAP2 SUB SWAP1 RETURN JUMPDEST PUSH1 0x0 PUSH1 0x1 SLOAD SWAP1 POP SWAP1 JUMP JUMPDEST PUSH1 0x0 PUSH1 0x1F PUSH1 0x7 DUP4 SWAP1 SHR AND SWAP1 POP SWAP2 SWAP1 POP JUMP JUMPDEST PUSH1 0x0 PUSH1 0x20 DUP3 SWAP1 SHR PUSH1 0x2 DUP2 GT ISZERO PUSH2 0x2D3 JUMPI PUSH2 0x2D2 PUSH2 0x6D3 JUMP JUMPDEST JUMPDEST SWAP1 POP SWAP2 SWAP1 POP JUMP JUMPDEST PUSH1 0x0 PUSH1 0x1F PUSH1 0x16 DUP4 SWAP1 SHR AND SWAP1 POP SWAP2 SWAP1 POP JUMP JUMPDEST PUSH7 0xB1A2BC2EC50000 CALLVALUE LT ISZERO PUSH2 0x335 JUMPI PUSH1 0x40 MLOAD PUSH32 0x8C379A000000000000000000000000000000000000000000000000000000000 DUP2 MSTORE PUSH1 0x4 ADD PUSH2 0x32C SWAP1 PUSH2 0x8F4 JUMP JUMPDEST PUSH1 0x40 MLOAD DUP1 SWAP2 SUB SWAP1 REVERT JUMPDEST PUSH1 0x0 PUSH1 0x5 PUSH8 0xFFFFFFFFFFFFFFFF DUP2 GT ISZERO PUSH2 0x352 JUMPI PUSH2 0x351 PUSH2 0x914 JUMP JUMPDEST JUMPDEST PUSH1 0x40 MLOAD SWAP1 DUP1 DUP3 MSTORE DUP1 PUSH1 0x20 MUL PUSH1 0x20 ADD DUP3 ADD PUSH1 0x40 MSTORE DUP1 ISZERO PUSH2 0x380 JUMPI DUP2 PUSH1 0x20 ADD PUSH1 0x20 DUP3 MUL DUP1 CALLDATASIZE DUP4 CALLDATACOPY DUP1 DUP3 ADD SWAP2 POP POP SWAP1 POP JUMPDEST POP SWAP1 POP PUSH1 0x2 DUP2 PUSH1 0x0 DUP2 MLOAD DUP2 LT PUSH2 0x399 JUMPI PUSH2 0x398 PUSH2 0x943 JUMP JUMPDEST JUMPDEST PUSH1 0x20 MUL PUSH1 0x20 ADD ADD DUP2 DUP2 MSTORE POP POP PUSH1 0x7 DUP2 PUSH1 0x1 DUP2 MLOAD DUP2 LT PUSH2 0x3BB JUMPI PUSH2 0x3BA PUSH2 0x943 JUMP JUMPDEST JUMPDEST PUSH1 0x20 MUL PUSH1 0x20 ADD ADD DUP2 DUP2 MSTORE POP POP PUSH1 0xC DUP2 PUSH1 0x2 DUP2 MLOAD DUP2 LT PUSH2 0x3DD JUMPI PUSH2 0x3DC PUSH2 0x943 JUMP JUMPDEST JUMPDEST PUSH1 0x20 MUL PUSH1 0x20 ADD ADD DUP2 DUP2 MSTORE POP POP PUSH1 0x11 DUP2 PUSH1 0x3 DUP2 MLOAD DUP2 LT PUSH2 0x3FF JUMPI PUSH2 0x3FE PUSH2 0x943 JUMP JUMPDEST JUMPDEST PUSH1 0x20 MUL PUSH1 0x20 ADD ADD DUP2 DUP2 MSTORE POP POP PUSH1 0x16 DUP2 PUSH1 0x4 DUP2 MLOAD DUP2 LT PUSH2 0x421 JUMPI PUSH2 0x420 PUSH2 0x943 JUMP JUMPDEST JUMPDEST PUSH1 0x20 MUL PUSH1 0x20 ADD ADD DUP2 DUP2 MSTORE POP POP PUSH1 0x0 DUP2 MLOAD SWAP1 POP PUSH1 0x0 DUP4 PUSH1 0x2 DUP2 GT ISZERO PUSH2 0x448 JUMPI PUSH2 0x447 PUSH2 0x6D3 JUMP JUMPDEST JUMPDEST SWAP1 POP JUMPDEST PUSH1 0x0 DUP3 PUSH2 0x456 PUSH2 0x29F JUMP JUMPDEST PUSH2 0x460 SWAP2 SWAP1 PUSH2 0x9A1 JUMP JUMPDEST SWAP1 POP PUSH1 0x0 PUSH1 0x1 DUP5 PUSH1 0xD PUSH2 0x473 SWAP2 SWAP1 PUSH2 0xA01 JUMP JUMPDEST PUSH2 0x47B PUSH2 0x29F JUMP JUMPDEST PUSH2 0x485 SWAP2 SWAP1 PUSH2 0x9A1 JUMP JUMPDEST PUSH2 0x48F SWAP2 SWAP1 PUSH2 0xA01 JUMP JUMPDEST SWAP1 POP DUP5 DUP3 DUP2 MLOAD DUP2 LT PUSH2 0x4A4 JUMPI PUSH2 0x4A3 PUSH2 0x943 JUMP JUMPDEST JUMPDEST PUSH1 0x20 MUL PUSH1 0x20 ADD ADD MLOAD DUP2 SWAP1 SHL DUP4 OR SWAP3 POP DUP4 DUP1 PUSH2 0x4BE SWAP1 PUSH2 0xA57 JUMP JUMPDEST SWAP5 POP POP DUP5 DUP5 DUP2 MLOAD DUP2 LT PUSH2 0x4D4 JUMPI PUSH2 0x4D3 PUSH2 0x943 JUMP JUMPDEST JUMPDEST PUSH1 0x20 MUL PUSH1 0x20 ADD ADD MLOAD DUP6 DUP4 DUP2 MLOAD DUP2 LT PUSH2 0x4EF JUMPI PUSH2 0x4EE PUSH2 0x943 JUMP JUMPDEST JUMPDEST PUSH1 0x20 MUL PUSH1 0x20 ADD ADD DUP2 DUP2 MSTORE POP POP POP POP PUSH1 0x0 DUP3 GT PUSH2 0x44B JUMPI PUSH1 0x0 DUP1 CALLER PUSH20 0xFFFFFFFFFFFFFFFFFFFFFFFFFFFFFFFFFFFFFFFF AND PUSH20 0xFFFFFFFFFFFFFFFFFFFFFFFFFFFFFFFFFFFFFFFF AND DUP2 MSTORE PUSH1 0x20 ADD SWAP1 DUP2 MSTORE PUSH1 0x20 ADD PUSH1 0x0 KECCAK256 DUP2 SWAP1 DUP1 PUSH1 0x1 DUP2 SLOAD ADD DUP1 DUP3 SSTORE DUP1 SWAP2 POP POP PUSH1 0x1 SWAP1 SUB SWAP1 PUSH1 0x0 MSTORE PUSH1 0x20 PUSH1 0x0 KECCAK256 ADD PUSH1 0x0 SWAP1 SWAP2 SWAP1 SWAP2 SWAP1 SWAP2 POP SSTORE POP POP POP POP JUMP JUMPDEST DUP1 PUSH1 0x1 DUP2 SWAP1 SSTORE POP POP JUMP JUMPDEST PUSH1 0x60 PUSH1 0x0 DUP1 CALLER PUSH20 0xFFFFFFFFFFFFFFFFFFFFFFFFFFFFFFFFFFFFFFFF AND PUSH20 0xFFFFFFFFFFFFFFFFFFFFFFFFFFFFFFFFFFFFFFFF AND DUP2 MSTORE PUSH1 0x20 ADD SWAP1 DUP2 MSTORE PUSH1 0x20 ADD PUSH1 0x0 KECCAK256 DUP1 SLOAD DUP1 PUSH1 0x20 MUL PUSH1 0x20 ADD PUSH1 0x40 MLOAD SWAP1 DUP2 ADD PUSH1 0x40 MSTORE DUP1 SWAP3 SWAP2 SWAP1 DUP2 DUP2 MSTORE PUSH1 0x20 ADD DUP3 DUP1 SLOAD DUP1 ISZERO PUSH2 0x604 JUMPI PUSH1 0x20 MUL DUP3 ADD SWAP2 SWAP1 PUSH1 0x0 MSTORE PUSH1 0x20 PUSH1 0x0 KECCAK256 SWAP1 JUMPDEST DUP2 SLOAD DUP2 MSTORE PUSH1 0x20 ADD SWAP1 PUSH1 0x1 ADD SWAP1 DUP1 DUP4 GT PUSH2 0x5F0 JUMPI JUMPDEST POP POP POP POP POP SWAP1 POP SWAP1 JUMP JUMPDEST PUSH1 0x0 PUSH1 0x1F PUSH1 0x11 DUP4 SWAP1 SHR AND SWAP1 POP SWAP2 SWAP1 POP JUMP JUMPDEST PUSH1 0x0 PUSH1 0x1F PUSH1 0xC DUP4 SWAP1 SHR AND SWAP1 POP SWAP2 SWAP1 POP JUMP JUMPDEST PUSH1 0x0 PUSH1 0x1F PUSH1 0x2 DUP4 SWAP1 SHR AND SWAP1 POP SWAP2 SWAP1 POP JUMP JUMPDEST PUSH1 0x0 DUP2 SWAP1 POP SWAP2 SWAP1 POP JUMP JUMPDEST PUSH2 0x654 DUP2 PUSH2 0x641 JUMP JUMPDEST DUP3 MSTORE POP POP JUMP JUMPDEST PUSH1 0x0 PUSH1 0x20 DUP3 ADD SWAP1 POP PUSH2 0x66F PUSH1 0x0 DUP4 ADD DUP5 PUSH2 0x64B JUMP JUMPDEST SWAP3 SWAP2 POP POP JUMP JUMPDEST PUSH1 0x0 DUP1 REVERT JUMPDEST PUSH2 0x683 DUP2 PUSH2 0x641 JUMP JUMPDEST DUP2 EQ PUSH2 0x68E JUMPI PUSH1 0x0 DUP1 REVERT JUMPDEST POP JUMP JUMPDEST PUSH1 0x0 DUP2 CALLDATALOAD SWAP1 POP PUSH2 0x6A0 DUP2 PUSH2 0x67A JUMP JUMPDEST SWAP3 SWAP2 POP POP JUMP JUMPDEST PUSH1 0x0 PUSH1 0x20 DUP3 DUP5 SUB SLT ISZERO PUSH2 0x6BC JUMPI PUSH2 0x6BB PUSH2 0x675 JUMP JUMPDEST JUMPDEST PUSH1 0x0 PUSH2 0x6CA DUP5 DUP3 DUP6 ADD PUSH2 0x691 JUMP JUMPDEST SWAP2 POP POP SWAP3 SWAP2 POP POP JUMP JUMPDEST PUSH32 0x4E487B7100000000000000000000000000000000000000000000000000000000 PUSH1 0x0 MSTORE PUSH1 0x21 PUSH1 0x4 MSTORE PUSH1 0x24 PUSH1 0x0 REVERT JUMPDEST PUSH1 0x3 DUP2 LT PUSH2 0x713 JUMPI PUSH2 0x712 PUSH2 0x6D3 JUMP JUMPDEST JUMPDEST POP JUMP JUMPDEST PUSH1 0x0 DUP2 SWAP1 POP PUSH2 0x724 DUP3 PUSH2 0x702 JUMP JUMPDEST SWAP2 SWAP1 POP JUMP JUMPDEST PUSH1 0x0 PUSH2 0x734 DUP3 PUSH2 0x716 JUMP JUMPDEST SWAP1 POP SWAP2 SWAP1 POP JUMP JUMPDEST PUSH2 0x744 DUP2 PUSH2 0x729 JUMP JUMPDEST DUP3 MSTORE POP POP JUMP JUMPDEST PUSH1 0x0 PUSH1 0x20 DUP3 ADD SWAP1 POP PUSH2 0x75F PUSH1 0x0 DUP4 ADD DUP5 PUSH2 0x73B JUMP JUMPDEST SWAP3 SWAP2 POP POP JUMP JUMPDEST PUSH1 0x3 DUP2 LT PUSH2 0x772 JUMPI PUSH1 0x0 DUP1 REVERT JUMPDEST POP JUMP JUMPDEST PUSH1 0x0 DUP2 CALLDATALOAD SWAP1 POP PUSH2 0x784 DUP2 PUSH2 0x765 JUMP JUMPDEST SWAP3 SWAP2 POP POP JUMP JUMPDEST PUSH1 0x0 PUSH1 0x20 DUP3 DUP5 SUB SLT ISZERO PUSH2 0x7A0 JUMPI PUSH2 0x79F PUSH2 0x675 JUMP JUMPDEST JUMPDEST PUSH1 0x0 PUSH2 0x7AE DUP5 DUP3 DUP6 ADD PUSH2 0x775 JUMP JUMPDEST SWAP2 POP POP SWAP3 SWAP2 POP POP JUMP JUMPDEST PUSH1 0x0 DUP2 MLOAD SWAP1 POP SWAP2 SWAP1 POP JUMP JUMPDEST PUSH1 0x0 DUP3 DUP3 MSTORE PUSH1 0x20 DUP3 ADD SWAP1 POP SWAP3 SWAP2 POP POP JUMP JUMPDEST PUSH1 0x0 DUP2 SWAP1 POP PUSH1 0x20 DUP3 ADD SWAP1 POP SWAP2 SWAP1 POP JUMP JUMPDEST PUSH2 0x7EC DUP2 PUSH2 0x641 JUMP JUMPDEST DUP3 MSTORE POP POP JUMP JUMPDEST PUSH1 0x0 PUSH2 0x7FE DUP4 DUP4 PUSH2 0x7E3 JUMP JUMPDEST PUSH1 0x20 DUP4 ADD SWAP1 POP SWAP3 SWAP2 POP POP JUMP JUMPDEST PUSH1 0x0 PUSH1 0x20 DUP3 ADD SWAP1 POP SWAP2 SWAP1 POP JUMP JUMPDEST PUSH1 0x0 PUSH2 0x822 DUP3 PUSH2 0x7B7 JUMP JUMPDEST PUSH2 0x82C DUP2 DUP6 PUSH2 0x7C2 JUMP JUMPDEST SWAP4 POP PUSH2 0x837 DUP4 PUSH2 0x7D3 JUMP JUMPDEST DUP1 PUSH1 0x0 JUMPDEST DUP4 DUP2 LT ISZERO PUSH2 0x868 JUMPI DUP2 MLOAD PUSH2 0x84F DUP9 DUP3 PUSH2 0x7F2 JUMP JUMPDEST SWAP8 POP PUSH2 0x85A DUP4 PUSH2 0x80A JUMP JUMPDEST SWAP3 POP POP PUSH1 0x1 DUP2 ADD SWAP1 POP PUSH2 0x83B JUMP JUMPDEST POP DUP6 SWAP4 POP POP POP POP SWAP3 SWAP2 POP POP JUMP JUMPDEST PUSH1 0x0 PUSH1 0x20 DUP3 ADD SWAP1 POP DUP2 DUP2 SUB PUSH1 0x0 DUP4 ADD MSTORE PUSH2 0x88F DUP2 DUP5 PUSH2 0x817 JUMP JUMPDEST SWAP1 POP SWAP3 SWAP2 POP POP JUMP JUMPDEST PUSH1 0x0 DUP3 DUP3 MSTORE PUSH1 0x20 DUP3 ADD SWAP1 POP SWAP3 SWAP2 POP POP JUMP JUMPDEST PUSH32 0x506C656173652073656E64206D6F7265206D6F6E657900000000000000000000 PUSH1 0x0 DUP3 ADD MSTORE POP JUMP JUMPDEST PUSH1 0x0 PUSH2 0x8DE PUSH1 0x16 DUP4 PUSH2 0x897 JUMP JUMPDEST SWAP2 POP PUSH2 0x8E9 DUP3 PUSH2 0x8A8 JUMP JUMPDEST PUSH1 0x20 DUP3 ADD SWAP1 POP SWAP2 SWAP1 POP JUMP JUMPDEST PUSH1 0x0 PUSH1 0x20 DUP3 ADD SWAP1 POP DUP2 DUP2 SUB PUSH1 0x0 DUP4 ADD MSTORE PUSH2 0x90D DUP2 PUSH2 0x8D1 JUMP JUMPDEST SWAP1 POP SWAP2 SWAP1 POP JUMP JUMPDEST PUSH32 0x4E487B7100000000000000000000000000000000000000000000000000000000 PUSH1 0x0 MSTORE PUSH1 0x41 PUSH1 0x4 MSTORE PUSH1 0x24 PUSH1 0x0 REVERT JUMPDEST PUSH32 0x4E487B7100000000000000000000000000000000000000000000000000000000 PUSH1 0x0 MSTORE PUSH1 0x32 PUSH1 0x4 MSTORE PUSH1 0x24 PUSH1 0x0 REVERT JUMPDEST PUSH32 0x4E487B7100000000000000000000000000000000000000000000000000000000 PUSH1 0x0 MSTORE PUSH1 0x12 PUSH1 0x4 MSTORE PUSH1 0x24 PUSH1 0x0 REVERT JUMPDEST PUSH1 0x0 PUSH2 0x9AC DUP3 PUSH2 0x641 JUMP JUMPDEST SWAP2 POP PUSH2 0x9B7 DUP4 PUSH2 0x641 JUMP JUMPDEST SWAP3 POP DUP3 PUSH2 0x9C7 JUMPI PUSH2 0x9C6 PUSH2 0x972 JUMP JUMPDEST JUMPDEST DUP3 DUP3 MOD SWAP1 POP SWAP3 SWAP2 POP POP JUMP JUMPDEST PUSH32 0x4E487B7100000000000000000000000000000000000000000000000000000000 PUSH1 0x0 MSTORE PUSH1 0x11 PUSH1 0x4 MSTORE PUSH1 0x24 PUSH1 0x0 REVERT JUMPDEST PUSH1 0x0 PUSH2 0xA0C DUP3 PUSH2 0x641 JUMP JUMPDEST SWAP2 POP PUSH2 0xA17 DUP4 PUSH2 0x641 JUMP JUMPDEST SWAP3 POP DUP3 PUSH32 0xFFFFFFFFFFFFFFFFFFFFFFFFFFFFFFFFFFFFFFFFFFFFFFFFFFFFFFFFFFFFFFFF SUB DUP3 GT ISZERO PUSH2 0xA4C JUMPI PUSH2 0xA4B PUSH2 0x9D2 JUMP JUMPDEST JUMPDEST DUP3 DUP3 ADD SWAP1 POP SWAP3 SWAP2 POP POP JUMP JUMPDEST PUSH1 0x0 PUSH2 0xA62 DUP3 PUSH2 0x641 JUMP JUMPDEST SWAP2 POP PUSH1 0x0 DUP3 EQ ISZERO PUSH2 0xA76 JUMPI PUSH2 0xA75 PUSH2 0x9D2 JUMP JUMPDEST JUMPDEST PUSH1 0x1 DUP3 SUB SWAP1 POP SWAP2 SWAP1 POP JUMP INVALID LOG2 PUSH5 0x6970667358 0x22 SLT KECCAK256 0xE CALLDATASIZE SWAP3 0xCA 0x2E DUP11 PUSH16 0x99F124C8A232160862BFF0077F15B85E 0xBD PUSH8 0xCFCB6A67DA2BD964 PUSH20 0x6F6C634300080A00330000000000000000000000 "
        },
        "methodIdentifiers": {
          "createHero(uint8)": "5e7e236d",
          "generateRandom()": "02e4af01",
          "getClass(uint256)": "512d62df",
          "getDexterity(uint256)": "e15f2255",
          "getHealth(uint256)": "3fc70f2c",
          "getHeroes()": "9a8d2882",
          "getIntelligence(uint256)": "baa5b27f",
          "getMagic(uint256)": "5bc0a623",
          "getStrength(uint256)": "e53fbda6",
          "setRandom(uint256)": "729e7cf6"
        }
      }
    }
  }
}