{
  "contracts/TestHero.sol": {
    "TestHero": {
      "abi": [
        {
          "inputs": [
            {
              "internalType": "enum Hero.Class",
              "name": "class",
              "type": "uint8"
            }
          ],
          "name": "createHero",
          "outputs": [],
          "stateMutability": "payable",
          "type": "function"
        },
        {
          "inputs": [],
          "name": "generateRandom",
          "outputs": [
            {
              "internalType": "uint256",
              "name": "",
              "type": "uint256"
            }
          ],
          "stateMutability": "view",
          "type": "function"
        },
        {
          "inputs": [
            {
              "internalType": "uint256",
              "name": "hero",
              "type": "uint256"
            }
          ],
          "name": "getClass",
          "outputs": [
            {
              "internalType": "enum Hero.Class",
              "name": "",
              "type": "uint8"
            }
          ],
          "stateMutability": "pure",
          "type": "function"
        },
        {
          "inputs": [
            {
              "internalType": "uint256",
              "name": "hero",
              "type": "uint256"
            }
          ],
          "name": "getDexterity",
          "outputs": [
            {
              "internalType": "uint256",
              "name": "",
              "type": "uint256"
            }
          ],
          "stateMutability": "pure",
          "type": "function"
        },
        {
          "inputs": [],
          "name": "getHeroes",
          "outputs": [
            {
              "internalType": "uint256[]",
              "name": "",
              "type": "uint256[]"
            }
          ],
          "stateMutability": "view",
          "type": "function"
        },
        {
          "inputs": [
            {
              "internalType": "uint256",
              "name": "hero",
              "type": "uint256"
            }
          ],
          "name": "getIntelligence",
          "outputs": [
            {
              "internalType": "uint256",
              "name": "",
              "type": "uint256"
            }
          ],
          "stateMutability": "pure",
          "type": "function"
        },
        {
          "inputs": [
            {
              "internalType": "uint256",
              "name": "hero",
              "type": "uint256"
            }
          ],
          "name": "getMagic",
          "outputs": [
            {
              "internalType": "uint256",
              "name": "",
              "type": "uint256"
            }
          ],
          "stateMutability": "pure",
          "type": "function"
        },
        {
          "inputs": [
            {
              "internalType": "uint256",
              "name": "hero",
              "type": "uint256"
            }
          ],
          "name": "getStrength",
          "outputs": [
            {
              "internalType": "uint256",
              "name": "",
              "type": "uint256"
            }
          ],
          "stateMutability": "pure",
          "type": "function"
        },
        {
          "inputs": [
            {
              "internalType": "uint256",
              "name": "r",
              "type": "uint256"
            }
          ],
          "name": "setRandom",
          "outputs": [],
          "stateMutability": "nonpayable",
          "type": "function"
        }
      ],
      "evm": {
        "bytecode": {
          "linkReferences": {},
          "object": "608060405234801561001057600080fd5b50610a5e806100206000396000f3fe6080604052600436106100865760003560e01c8063729e7cf611610059578063729e7cf61461014c5780639a8d288214610175578063baa5b27f146101a0578063e15f2255146101dd578063e53fbda61461021a57610086565b806302e4af011461008b578063512d62df146100b65780635bc0a623146100f35780635e7e236d14610130575b600080fd5b34801561009757600080fd5b506100a0610257565b6040516100ad9190610601565b60405180910390f35b3480156100c257600080fd5b506100dd60048036038101906100d8919061064d565b610261565b6040516100ea91906106f1565b60405180910390f35b3480156100ff57600080fd5b5061011a6004803603810190610115919061064d565b610281565b6040516101279190610601565b60405180910390f35b61014a60048036038101906101459190610731565b610292565b005b34801561015857600080fd5b50610173600480360381019061016e919061064d565b610517565b005b34801561018157600080fd5b5061018a610521565b604051610197919061081c565b60405180910390f35b3480156101ac57600080fd5b506101c760048036038101906101c2919061064d565b6105b5565b6040516101d49190610601565b60405180910390f35b3480156101e957600080fd5b5061020460048036038101906101ff919061064d565b6105c6565b6040516102119190610601565b60405180910390f35b34801561022657600080fd5b50610241600480360381019061023c919061064d565b6105d7565b60405161024e9190610601565b60405180910390f35b6000600154905090565b6000602082901c600281111561027a5761027961067a565b5b9050919050565b6000601f601683901c169050919050565b66b1a2bc2ec500003410156102dc576040517f08c379a00000000000000000000000000000000000000000000000000000000081526004016102d39061089b565b60405180910390fd5b6000600567ffffffffffffffff8111156102f9576102f86108bb565b5b6040519080825280602002602001820160405280156103275781602001602082028036833780820191505090505b5090506002816000815181106103405761033f6108ea565b5b602002602001018181525050600781600181518110610362576103616108ea565b5b602002602001018181525050600c81600281518110610384576103836108ea565b5b6020026020010181815250506011816003815181106103a6576103a56108ea565b5b6020026020010181815250506016816004815181106103c8576103c76108ea565b5b60200260200101818152505060006005905060008360028111156103ef576103ee61067a565b5b90505b6000826103fd610257565b6104079190610948565b90506000600184600d61041a91906109a8565b610422610257565b61042c9190610948565b61043691906109a8565b905084828151811061044b5761044a6108ea565b5b602002602001015181901b831792508380610465906109fe565b94505084848151811061047b5761047a6108ea565b5b6020026020010151858381518110610496576104956108ea565b5b6020026020010181815250505050600082116103f2576000803373ffffffffffffffffffffffffffffffffffffffff1673ffffffffffffffffffffffffffffffffffffffff16815260200190815260200160002081908060018154018082558091505060019003906000526020600020016000909190919091505550505050565b8060018190555050565b60606000803373ffffffffffffffffffffffffffffffffffffffff1673ffffffffffffffffffffffffffffffffffffffff1681526020019081526020016000208054806020026020016040519081016040528092919081815260200182805480156105ab57602002820191906000526020600020905b815481526020019060010190808311610597575b5050505050905090565b6000601f601183901c169050919050565b6000601f600c83901c169050919050565b6000601f600283901c169050919050565b6000819050919050565b6105fb816105e8565b82525050565b600060208201905061061660008301846105f2565b92915050565b600080fd5b61062a816105e8565b811461063557600080fd5b50565b60008135905061064781610621565b92915050565b6000602082840312156106635761066261061c565b5b600061067184828501610638565b91505092915050565b7f4e487b7100000000000000000000000000000000000000000000000000000000600052602160045260246000fd5b600381106106ba576106b961067a565b5b50565b60008190506106cb826106a9565b919050565b60006106db826106bd565b9050919050565b6106eb816106d0565b82525050565b600060208201905061070660008301846106e2565b92915050565b6003811061071957600080fd5b50565b60008135905061072b8161070c565b92915050565b6000602082840312156107475761074661061c565b5b60006107558482850161071c565b91505092915050565b600081519050919050565b600082825260208201905092915050565b6000819050602082019050919050565b610793816105e8565b82525050565b60006107a5838361078a565b60208301905092915050565b6000602082019050919050565b60006107c98261075e565b6107d38185610769565b93506107de8361077a565b8060005b8381101561080f5781516107f68882610799565b9750610801836107b1565b9250506001810190506107e2565b5085935050505092915050565b6000602082019050818103600083015261083681846107be565b905092915050565b600082825260208201905092915050565b7f506c656173652073656e64206d6f7265206d6f6e657900000000000000000000600082015250565b600061088560168361083e565b91506108908261084f565b602082019050919050565b600060208201905081810360008301526108b481610878565b9050919050565b7f4e487b7100000000000000000000000000000000000000000000000000000000600052604160045260246000fd5b7f4e487b7100000000000000000000000000000000000000000000000000000000600052603260045260246000fd5b7f4e487b7100000000000000000000000000000000000000000000000000000000600052601260045260246000fd5b6000610953826105e8565b915061095e836105e8565b92508261096e5761096d610919565b5b828206905092915050565b7f4e487b7100000000000000000000000000000000000000000000000000000000600052601160045260246000fd5b60006109b3826105e8565b91506109be836105e8565b9250827fffffffffffffffffffffffffffffffffffffffffffffffffffffffffffffffff038211156109f3576109f2610979565b5b828201905092915050565b6000610a09826105e8565b91506000821415610a1d57610a1c610979565b5b60018203905091905056fea2646970667358221220fd756abc9aeb0c4e9774f4c60b4490237f8a90b366340423c8da16c1347fe52f64736f6c634300080a0033",
          "opcodes": "PUSH1 0x80 PUSH1 0x40 MSTORE CALLVALUE DUP1 ISZERO PUSH2 0x10 JUMPI PUSH1 0x0 DUP1 REVERT JUMPDEST POP PUSH2 0xA5E DUP1 PUSH2 0x20 PUSH1 0x0 CODECOPY PUSH1 0x0 RETURN INVALID PUSH1 0x80 PUSH1 0x40 MSTORE PUSH1 0x4 CALLDATASIZE LT PUSH2 0x86 JUMPI PUSH1 0x0 CALLDATALOAD PUSH1 0xE0 SHR DUP1 PUSH4 0x729E7CF6 GT PUSH2 0x59 JUMPI DUP1 PUSH4 0x729E7CF6 EQ PUSH2 0x14C JUMPI DUP1 PUSH4 0x9A8D2882 EQ PUSH2 0x175 JUMPI DUP1 PUSH4 0xBAA5B27F EQ PUSH2 0x1A0 JUMPI DUP1 PUSH4 0xE15F2255 EQ PUSH2 0x1DD JUMPI DUP1 PUSH4 0xE53FBDA6 EQ PUSH2 0x21A JUMPI PUSH2 0x86 JUMP JUMPDEST DUP1 PUSH4 0x2E4AF01 EQ PUSH2 0x8B JUMPI DUP1 PUSH4 0x512D62DF EQ PUSH2 0xB6 JUMPI DUP1 PUSH4 0x5BC0A623 EQ PUSH2 0xF3 JUMPI DUP1 PUSH4 0x5E7E236D EQ PUSH2 0x130 JUMPI JUMPDEST PUSH1 0x0 DUP1 REVERT JUMPDEST CALLVALUE DUP1 ISZERO PUSH2 0x97 JUMPI PUSH1 0x0 DUP1 REVERT JUMPDEST POP PUSH2 0xA0 PUSH2 0x257 JUMP JUMPDEST PUSH1 0x40 MLOAD PUSH2 0xAD SWAP2 SWAP1 PUSH2 0x601 JUMP JUMPDEST PUSH1 0x40 MLOAD DUP1 SWAP2 SUB SWAP1 RETURN JUMPDEST CALLVALUE DUP1 ISZERO PUSH2 0xC2 JUMPI PUSH1 0x0 DUP1 REVERT JUMPDEST POP PUSH2 0xDD PUSH1 0x4 DUP1 CALLDATASIZE SUB DUP2 ADD SWAP1 PUSH2 0xD8 SWAP2 SWAP1 PUSH2 0x64D JUMP JUMPDEST PUSH2 0x261 JUMP JUMPDEST PUSH1 0x40 MLOAD PUSH2 0xEA SWAP2 SWAP1 PUSH2 0x6F1 JUMP JUMPDEST PUSH1 0x40 MLOAD DUP1 SWAP2 SUB SWAP1 RETURN JUMPDEST CALLVALUE DUP1 ISZERO PUSH2 0xFF JUMPI PUSH1 0x0 DUP1 REVERT JUMPDEST POP PUSH2 0x11A PUSH1 0x4 DUP1 CALLDATASIZE SUB DUP2 ADD SWAP1 PUSH2 0x115 SWAP2 SWAP1 PUSH2 0x64D JUMP JUMPDEST PUSH2 0x281 JUMP JUMPDEST PUSH1 0x40 MLOAD PUSH2 0x127 SWAP2 SWAP1 PUSH2 0x601 JUMP JUMPDEST PUSH1 0x40 MLOAD DUP1 SWAP2 SUB SWAP1 RETURN JUMPDEST PUSH2 0x14A PUSH1 0x4 DUP1 CALLDATASIZE SUB DUP2 ADD SWAP1 PUSH2 0x145 SWAP2 SWAP1 PUSH2 0x731 JUMP JUMPDEST PUSH2 0x292 JUMP JUMPDEST STOP JUMPDEST CALLVALUE DUP1 ISZERO PUSH2 0x158 JUMPI PUSH1 0x0 DUP1 REVERT JUMPDEST POP PUSH2 0x173 PUSH1 0x4 DUP1 CALLDATASIZE SUB DUP2 ADD SWAP1 PUSH2 0x16E SWAP2 SWAP1 PUSH2 0x64D JUMP JUMPDEST PUSH2 0x517 JUMP JUMPDEST STOP JUMPDEST CALLVALUE DUP1 ISZERO PUSH2 0x181 JUMPI PUSH1 0x0 DUP1 REVERT JUMPDEST POP PUSH2 0x18A PUSH2 0x521 JUMP JUMPDEST PUSH1 0x40 MLOAD PUSH2 0x197 SWAP2 SWAP1 PUSH2 0x81C JUMP JUMPDEST PUSH1 0x40 MLOAD DUP1 SWAP2 SUB SWAP1 RETURN JUMPDEST CALLVALUE DUP1 ISZERO PUSH2 0x1AC JUMPI PUSH1 0x0 DUP1 REVERT JUMPDEST POP PUSH2 0x1C7 PUSH1 0x4 DUP1 CALLDATASIZE SUB DUP2 ADD SWAP1 PUSH2 0x1C2 SWAP2 SWAP1 PUSH2 0x64D JUMP JUMPDEST PUSH2 0x5B5 JUMP JUMPDEST PUSH1 0x40 MLOAD PUSH2 0x1D4 SWAP2 SWAP1 PUSH2 0x601 JUMP JUMPDEST PUSH1 0x40 MLOAD DUP1 SWAP2 SUB SWAP1 RETURN JUMPDEST CALLVALUE DUP1 ISZERO PUSH2 0x1E9 JUMPI PUSH1 0x0 DUP1 REVERT JUMPDEST POP PUSH2 0x204 PUSH1 0x4 DUP1 CALLDATASIZE SUB DUP2 ADD SWAP1 PUSH2 0x1FF SWAP2 SWAP1 PUSH2 0x64D JUMP JUMPDEST PUSH2 0x5C6 JUMP JUMPDEST PUSH1 0x40 MLOAD PUSH2 0x211 SWAP2 SWAP1 PUSH2 0x601 JUMP JUMPDEST PUSH1 0x40 MLOAD DUP1 SWAP2 SUB SWAP1 RETURN JUMPDEST CALLVALUE DUP1 ISZERO PUSH2 0x226 JUMPI PUSH1 0x0 DUP1 REVERT JUMPDEST POP PUSH2 0x241 PUSH1 0x4 DUP1 CALLDATASIZE SUB DUP2 ADD SWAP1 PUSH2 0x23C SWAP2 SWAP1 PUSH2 0x64D JUMP JUMPDEST PUSH2 0x5D7 JUMP JUMPDEST PUSH1 0x40 MLOAD PUSH2 0x24E SWAP2 SWAP1 PUSH2 0x601 JUMP JUMPDEST PUSH1 0x40 MLOAD DUP1 SWAP2 SUB SWAP1 RETURN JUMPDEST PUSH1 0x0 PUSH1 0x1 SLOAD SWAP1 POP SWAP1 JUMP JUMPDEST PUSH1 0x0 PUSH1 0x20 DUP3 SWAP1 SHR PUSH1 0x2 DUP2 GT ISZERO PUSH2 0x27A JUMPI PUSH2 0x279 PUSH2 0x67A JUMP JUMPDEST JUMPDEST SWAP1 POP SWAP2 SWAP1 POP JUMP JUMPDEST PUSH1 0x0 PUSH1 0x1F PUSH1 0x16 DUP4 SWAP1 SHR AND SWAP1 POP SWAP2 SWAP1 POP JUMP JUMPDEST PUSH7 0xB1A2BC2EC50000 CALLVALUE LT ISZERO PUSH2 0x2DC JUMPI PUSH1 0x40 MLOAD PUSH32 0x8C379A000000000000000000000000000000000000000000000000000000000 DUP2 MSTORE PUSH1 0x4 ADD PUSH2 0x2D3 SWAP1 PUSH2 0x89B JUMP JUMPDEST PUSH1 0x40 MLOAD DUP1 SWAP2 SUB SWAP1 REVERT JUMPDEST PUSH1 0x0 PUSH1 0x5 PUSH8 0xFFFFFFFFFFFFFFFF DUP2 GT ISZERO PUSH2 0x2F9 JUMPI PUSH2 0x2F8 PUSH2 0x8BB JUMP JUMPDEST JUMPDEST PUSH1 0x40 MLOAD SWAP1 DUP1 DUP3 MSTORE DUP1 PUSH1 0x20 MUL PUSH1 0x20 ADD DUP3 ADD PUSH1 0x40 MSTORE DUP1 ISZERO PUSH2 0x327 JUMPI DUP2 PUSH1 0x20 ADD PUSH1 0x20 DUP3 MUL DUP1 CALLDATASIZE DUP4 CALLDATACOPY DUP1 DUP3 ADD SWAP2 POP POP SWAP1 POP JUMPDEST POP SWAP1 POP PUSH1 0x2 DUP2 PUSH1 0x0 DUP2 MLOAD DUP2 LT PUSH2 0x340 JUMPI PUSH2 0x33F PUSH2 0x8EA JUMP JUMPDEST JUMPDEST PUSH1 0x20 MUL PUSH1 0x20 ADD ADD DUP2 DUP2 MSTORE POP POP PUSH1 0x7 DUP2 PUSH1 0x1 DUP2 MLOAD DUP2 LT PUSH2 0x362 JUMPI PUSH2 0x361 PUSH2 0x8EA JUMP JUMPDEST JUMPDEST PUSH1 0x20 MUL PUSH1 0x20 ADD ADD DUP2 DUP2 MSTORE POP POP PUSH1 0xC DUP2 PUSH1 0x2 DUP2 MLOAD DUP2 LT PUSH2 0x384 JUMPI PUSH2 0x383 PUSH2 0x8EA JUMP JUMPDEST JUMPDEST PUSH1 0x20 MUL PUSH1 0x20 ADD ADD DUP2 DUP2 MSTORE POP POP PUSH1 0x11 DUP2 PUSH1 0x3 DUP2 MLOAD DUP2 LT PUSH2 0x3A6 JUMPI PUSH2 0x3A5 PUSH2 0x8EA JUMP JUMPDEST JUMPDEST PUSH1 0x20 MUL PUSH1 0x20 ADD ADD DUP2 DUP2 MSTORE POP POP PUSH1 0x16 DUP2 PUSH1 0x4 DUP2 MLOAD DUP2 LT PUSH2 0x3C8 JUMPI PUSH2 0x3C7 PUSH2 0x8EA JUMP JUMPDEST JUMPDEST PUSH1 0x20 MUL PUSH1 0x20 ADD ADD DUP2 DUP2 MSTORE POP POP PUSH1 0x0 PUSH1 0x5 SWAP1 POP PUSH1 0x0 DUP4 PUSH1 0x2 DUP2 GT ISZERO PUSH2 0x3EF JUMPI PUSH2 0x3EE PUSH2 0x67A JUMP JUMPDEST JUMPDEST SWAP1 POP JUMPDEST PUSH1 0x0 DUP3 PUSH2 0x3FD PUSH2 0x257 JUMP JUMPDEST PUSH2 0x407 SWAP2 SWAP1 PUSH2 0x948 JUMP JUMPDEST SWAP1 POP PUSH1 0x0 PUSH1 0x1 DUP5 PUSH1 0xD PUSH2 0x41A SWAP2 SWAP1 PUSH2 0x9A8 JUMP JUMPDEST PUSH2 0x422 PUSH2 0x257 JUMP JUMPDEST PUSH2 0x42C SWAP2 SWAP1 PUSH2 0x948 JUMP JUMPDEST PUSH2 0x436 SWAP2 SWAP1 PUSH2 0x9A8 JUMP JUMPDEST SWAP1 POP DUP5 DUP3 DUP2 MLOAD DUP2 LT PUSH2 0x44B JUMPI PUSH2 0x44A PUSH2 0x8EA JUMP JUMPDEST JUMPDEST PUSH1 0x20 MUL PUSH1 0x20 ADD ADD MLOAD DUP2 SWAP1 SHL DUP4 OR SWAP3 POP DUP4 DUP1 PUSH2 0x465 SWAP1 PUSH2 0x9FE JUMP JUMPDEST SWAP5 POP POP DUP5 DUP5 DUP2 MLOAD DUP2 LT PUSH2 0x47B JUMPI PUSH2 0x47A PUSH2 0x8EA JUMP JUMPDEST JUMPDEST PUSH1 0x20 MUL PUSH1 0x20 ADD ADD MLOAD DUP6 DUP4 DUP2 MLOAD DUP2 LT PUSH2 0x496 JUMPI PUSH2 0x495 PUSH2 0x8EA JUMP JUMPDEST JUMPDEST PUSH1 0x20 MUL PUSH1 0x20 ADD ADD DUP2 DUP2 MSTORE POP POP POP POP PUSH1 0x0 DUP3 GT PUSH2 0x3F2 JUMPI PUSH1 0x0 DUP1 CALLER PUSH20 0xFFFFFFFFFFFFFFFFFFFFFFFFFFFFFFFFFFFFFFFF AND PUSH20 0xFFFFFFFFFFFFFFFFFFFFFFFFFFFFFFFFFFFFFFFF AND DUP2 MSTORE PUSH1 0x20 ADD SWAP1 DUP2 MSTORE PUSH1 0x20 ADD PUSH1 0x0 KECCAK256 DUP2 SWAP1 DUP1 PUSH1 0x1 DUP2 SLOAD ADD DUP1 DUP3 SSTORE DUP1 SWAP2 POP POP PUSH1 0x1 SWAP1 SUB SWAP1 PUSH1 0x0 MSTORE PUSH1 0x20 PUSH1 0x0 KECCAK256 ADD PUSH1 0x0 SWAP1 SWAP2 SWAP1 SWAP2 SWAP1 SWAP2 POP SSTORE POP POP POP POP JUMP JUMPDEST DUP1 PUSH1 0x1 DUP2 SWAP1 SSTORE POP POP JUMP JUMPDEST PUSH1 0x60 PUSH1 0x0 DUP1 CALLER PUSH20 0xFFFFFFFFFFFFFFFFFFFFFFFFFFFFFFFFFFFFFFFF AND PUSH20 0xFFFFFFFFFFFFFFFFFFFFFFFFFFFFFFFFFFFFFFFF AND DUP2 MSTORE PUSH1 0x20 ADD SWAP1 DUP2 MSTORE PUSH1 0x20 ADD PUSH1 0x0 KECCAK256 DUP1 SLOAD DUP1 PUSH1 0x20 MUL PUSH1 0x20 ADD PUSH1 0x40 MLOAD SWAP1 DUP2 ADD PUSH1 0x40 MSTORE DUP1 SWAP3 SWAP2 SWAP1 DUP2 DUP2 MSTORE PUSH1 0x20 ADD DUP3 DUP1 SLOAD DUP1 ISZERO PUSH2 0x5AB JUMPI PUSH1 0x20 MUL DUP3 ADD SWAP2 SWAP1 PUSH1 0x0 MSTORE PUSH1 0x20 PUSH1 0x0 KECCAK256 SWAP1 JUMPDEST DUP2 SLOAD DUP2 MSTORE PUSH1 0x20 ADD SWAP1 PUSH1 0x1 ADD SWAP1 DUP1 DUP4 GT PUSH2 0x597 JUMPI JUMPDEST POP POP POP POP POP SWAP1 POP SWAP1 JUMP JUMPDEST PUSH1 0x0 PUSH1 0x1F PUSH1 0x11 DUP4 SWAP1 SHR AND SWAP1 POP SWAP2 SWAP1 POP JUMP JUMPDEST PUSH1 0x0 PUSH1 0x1F PUSH1 0xC DUP4 SWAP1 SHR AND SWAP1 POP SWAP2 SWAP1 POP JUMP JUMPDEST PUSH1 0x0 PUSH1 0x1F PUSH1 0x2 DUP4 SWAP1 SHR AND SWAP1 POP SWAP2 SWAP1 POP JUMP JUMPDEST PUSH1 0x0 DUP2 SWAP1 POP SWAP2 SWAP1 POP JUMP JUMPDEST PUSH2 0x5FB DUP2 PUSH2 0x5E8 JUMP JUMPDEST DUP3 MSTORE POP POP JUMP JUMPDEST PUSH1 0x0 PUSH1 0x20 DUP3 ADD SWAP1 POP PUSH2 0x616 PUSH1 0x0 DUP4 ADD DUP5 PUSH2 0x5F2 JUMP JUMPDEST SWAP3 SWAP2 POP POP JUMP JUMPDEST PUSH1 0x0 DUP1 REVERT JUMPDEST PUSH2 0x62A DUP2 PUSH2 0x5E8 JUMP JUMPDEST DUP2 EQ PUSH2 0x635 JUMPI PUSH1 0x0 DUP1 REVERT JUMPDEST POP JUMP JUMPDEST PUSH1 0x0 DUP2 CALLDATALOAD SWAP1 POP PUSH2 0x647 DUP2 PUSH2 0x621 JUMP JUMPDEST SWAP3 SWAP2 POP POP JUMP JUMPDEST PUSH1 0x0 PUSH1 0x20 DUP3 DUP5 SUB SLT ISZERO PUSH2 0x663 JUMPI PUSH2 0x662 PUSH2 0x61C JUMP JUMPDEST JUMPDEST PUSH1 0x0 PUSH2 0x671 DUP5 DUP3 DUP6 ADD PUSH2 0x638 JUMP JUMPDEST SWAP2 POP POP SWAP3 SWAP2 POP POP JUMP JUMPDEST PUSH32 0x4E487B7100000000000000000000000000000000000000000000000000000000 PUSH1 0x0 MSTORE PUSH1 0x21 PUSH1 0x4 MSTORE PUSH1 0x24 PUSH1 0x0 REVERT JUMPDEST PUSH1 0x3 DUP2 LT PUSH2 0x6BA JUMPI PUSH2 0x6B9 PUSH2 0x67A JUMP JUMPDEST JUMPDEST POP JUMP JUMPDEST PUSH1 0x0 DUP2 SWAP1 POP PUSH2 0x6CB DUP3 PUSH2 0x6A9 JUMP JUMPDEST SWAP2 SWAP1 POP JUMP JUMPDEST PUSH1 0x0 PUSH2 0x6DB DUP3 PUSH2 0x6BD JUMP JUMPDEST SWAP1 POP SWAP2 SWAP1 POP JUMP JUMPDEST PUSH2 0x6EB DUP2 PUSH2 0x6D0 JUMP JUMPDEST DUP3 MSTORE POP POP JUMP JUMPDEST PUSH1 0x0 PUSH1 0x20 DUP3 ADD SWAP1 POP PUSH2 0x706 PUSH1 0x0 DUP4 ADD DUP5 PUSH2 0x6E2 JUMP JUMPDEST SWAP3 SWAP2 POP POP JUMP JUMPDEST PUSH1 0x3 DUP2 LT PUSH2 0x719 JUMPI PUSH1 0x0 DUP1 REVERT JUMPDEST POP JUMP JUMPDEST PUSH1 0x0 DUP2 CALLDATALOAD SWAP1 POP PUSH2 0x72B DUP2 PUSH2 0x70C JUMP JUMPDEST SWAP3 SWAP2 POP POP JUMP JUMPDEST PUSH1 0x0 PUSH1 0x20 DUP3 DUP5 SUB SLT ISZERO PUSH2 0x747 JUMPI PUSH2 0x746 PUSH2 0x61C JUMP JUMPDEST JUMPDEST PUSH1 0x0 PUSH2 0x755 DUP5 DUP3 DUP6 ADD PUSH2 0x71C JUMP JUMPDEST SWAP2 POP POP SWAP3 SWAP2 POP POP JUMP JUMPDEST PUSH1 0x0 DUP2 MLOAD SWAP1 POP SWAP2 SWAP1 POP JUMP JUMPDEST PUSH1 0x0 DUP3 DUP3 MSTORE PUSH1 0x20 DUP3 ADD SWAP1 POP SWAP3 SWAP2 POP POP JUMP JUMPDEST PUSH1 0x0 DUP2 SWAP1 POP PUSH1 0x20 DUP3 ADD SWAP1 POP SWAP2 SWAP1 POP JUMP JUMPDEST PUSH2 0x793 DUP2 PUSH2 0x5E8 JUMP JUMPDEST DUP3 MSTORE POP POP JUMP JUMPDEST PUSH1 0x0 PUSH2 0x7A5 DUP4 DUP4 PUSH2 0x78A JUMP JUMPDEST PUSH1 0x20 DUP4 ADD SWAP1 POP SWAP3 SWAP2 POP POP JUMP JUMPDEST PUSH1 0x0 PUSH1 0x20 DUP3 ADD SWAP1 POP SWAP2 SWAP1 POP JUMP JUMPDEST PUSH1 0x0 PUSH2 0x7C9 DUP3 PUSH2 0x75E JUMP JUMPDEST PUSH2 0x7D3 DUP2 DUP6 PUSH2 0x769 JUMP JUMPDEST SWAP4 POP PUSH2 0x7DE DUP4 PUSH2 0x77A JUMP JUMPDEST DUP1 PUSH1 0x0 JUMPDEST DUP4 DUP2 LT ISZERO PUSH2 0x80F JUMPI DUP2 MLOAD PUSH2 0x7F6 DUP9 DUP3 PUSH2 0x799 JUMP JUMPDEST SWAP8 POP PUSH2 0x801 DUP4 PUSH2 0x7B1 JUMP JUMPDEST SWAP3 POP POP PUSH1 0x1 DUP2 ADD SWAP1 POP PUSH2 0x7E2 JUMP JUMPDEST POP DUP6 SWAP4 POP POP POP POP SWAP3 SWAP2 POP POP JUMP JUMPDEST PUSH1 0x0 PUSH1 0x20 DUP3 ADD SWAP1 POP DUP2 DUP2 SUB PUSH1 0x0 DUP4 ADD MSTORE PUSH2 0x836 DUP2 DUP5 PUSH2 0x7BE JUMP JUMPDEST SWAP1 POP SWAP3 SWAP2 POP POP JUMP JUMPDEST PUSH1 0x0 DUP3 DUP3 MSTORE PUSH1 0x20 DUP3 ADD SWAP1 POP SWAP3 SWAP2 POP POP JUMP JUMPDEST PUSH32 0x506C656173652073656E64206D6F7265206D6F6E657900000000000000000000 PUSH1 0x0 DUP3 ADD MSTORE POP JUMP JUMPDEST PUSH1 0x0 PUSH2 0x885 PUSH1 0x16 DUP4 PUSH2 0x83E JUMP JUMPDEST SWAP2 POP PUSH2 0x890 DUP3 PUSH2 0x84F JUMP JUMPDEST PUSH1 0x20 DUP3 ADD SWAP1 POP SWAP2 SWAP1 POP JUMP JUMPDEST PUSH1 0x0 PUSH1 0x20 DUP3 ADD SWAP1 POP DUP2 DUP2 SUB PUSH1 0x0 DUP4 ADD MSTORE PUSH2 0x8B4 DUP2 PUSH2 0x878 JUMP JUMPDEST SWAP1 POP SWAP2 SWAP1 POP JUMP JUMPDEST PUSH32 0x4E487B7100000000000000000000000000000000000000000000000000000000 PUSH1 0x0 MSTORE PUSH1 0x41 PUSH1 0x4 MSTORE PUSH1 0x24 PUSH1 0x0 REVERT JUMPDEST PUSH32 0x4E487B7100000000000000000000000000000000000000000000000000000000 PUSH1 0x0 MSTORE PUSH1 0x32 PUSH1 0x4 MSTORE PUSH1 0x24 PUSH1 0x0 REVERT JUMPDEST PUSH32 0x4E487B7100000000000000000000000000000000000000000000000000000000 PUSH1 0x0 MSTORE PUSH1 0x12 PUSH1 0x4 MSTORE PUSH1 0x24 PUSH1 0x0 REVERT JUMPDEST PUSH1 0x0 PUSH2 0x953 DUP3 PUSH2 0x5E8 JUMP JUMPDEST SWAP2 POP PUSH2 0x95E DUP4 PUSH2 0x5E8 JUMP JUMPDEST SWAP3 POP DUP3 PUSH2 0x96E JUMPI PUSH2 0x96D PUSH2 0x919 JUMP JUMPDEST JUMPDEST DUP3 DUP3 MOD SWAP1 POP SWAP3 SWAP2 POP POP JUMP JUMPDEST PUSH32 0x4E487B7100000000000000000000000000000000000000000000000000000000 PUSH1 0x0 MSTORE PUSH1 0x11 PUSH1 0x4 MSTORE PUSH1 0x24 PUSH1 0x0 REVERT JUMPDEST PUSH1 0x0 PUSH2 0x9B3 DUP3 PUSH2 0x5E8 JUMP JUMPDEST SWAP2 POP PUSH2 0x9BE DUP4 PUSH2 0x5E8 JUMP JUMPDEST SWAP3 POP DUP3 PUSH32 0xFFFFFFFFFFFFFFFFFFFFFFFFFFFFFFFFFFFFFFFFFFFFFFFFFFFFFFFFFFFFFFFF SUB DUP3 GT ISZERO PUSH2 0x9F3 JUMPI PUSH2 0x9F2 PUSH2 0x979 JUMP JUMPDEST JUMPDEST DUP3 DUP3 ADD SWAP1 POP SWAP3 SWAP2 POP POP JUMP JUMPDEST PUSH1 0x0 PUSH2 0xA09 DUP3 PUSH2 0x5E8 JUMP JUMPDEST SWAP2 POP PUSH1 0x0 DUP3 EQ ISZERO PUSH2 0xA1D JUMPI PUSH2 0xA1C PUSH2 0x979 JUMP JUMPDEST JUMPDEST PUSH1 0x1 DUP3 SUB SWAP1 POP SWAP2 SWAP1 POP JUMP INVALID LOG2 PUSH5 0x6970667358 0x22 SLT KECCAK256 REVERT PUSH22 0x6ABC9AEB0C4E9774F4C60B4490237F8A90B366340423 0xC8 0xDA AND 0xC1 CALLVALUE PUSH32 0xE52F64736F6C634300080A003300000000000000000000000000000000000000 "
        },
        "methodIdentifiers": {
          "createHero(uint8)": "5e7e236d",
          "generateRandom()": "02e4af01",
          "getClass(uint256)": "512d62df",
          "getDexterity(uint256)": "e15f2255",
          "getHeroes()": "9a8d2882",
          "getIntelligence(uint256)": "baa5b27f",
          "getMagic(uint256)": "5bc0a623",
          "getStrength(uint256)": "e53fbda6",
          "setRandom(uint256)": "729e7cf6"
        }
      }
    }
  }
}