{
  "_format": "hh-sol-artifact-1",
  "contractName": "Hero",
  "sourceName": "contracts/Hero.sol",
  "abi": [
    {
      "inputs": [
        {
          "internalType": "enum Hero.Class",
          "name": "class",
          "type": "uint8"
        }
      ],
      "name": "createHero",
      "outputs": [],
      "stateMutability": "payable",
      "type": "function"
    },
    {
      "inputs": [],
      "name": "generateRandom",
      "outputs": [
        {
          "internalType": "uint256",
          "name": "",
          "type": "uint256"
        }
      ],
      "stateMutability": "view",
      "type": "function"
    },
    {
      "inputs": [
        {
          "internalType": "uint256",
          "name": "hero",
          "type": "uint256"
        }
      ],
      "name": "getClass",
      "outputs": [
        {
          "internalType": "enum Hero.Class",
          "name": "",
          "type": "uint8"
        }
      ],
      "stateMutability": "pure",
      "type": "function"
    },
    {
      "inputs": [
        {
          "internalType": "uint256",
          "name": "hero",
          "type": "uint256"
        }
      ],
      "name": "getDexterity",
      "outputs": [
        {
          "internalType": "uint256",
          "name": "",
          "type": "uint256"
        }
      ],
      "stateMutability": "pure",
      "type": "function"
    },
    {
      "inputs": [
        {
          "internalType": "uint256",
          "name": "hero",
          "type": "uint256"
        }
      ],
      "name": "getHealth",
      "outputs": [
        {
          "internalType": "uint256",
          "name": "",
          "type": "uint256"
        }
      ],
      "stateMutability": "pure",
      "type": "function"
    },
    {
      "inputs": [],
      "name": "getHeroes",
      "outputs": [
        {
          "internalType": "uint256[]",
          "name": "",
          "type": "uint256[]"
        }
      ],
      "stateMutability": "view",
      "type": "function"
    },
    {
      "inputs": [
        {
          "internalType": "uint256",
          "name": "hero",
          "type": "uint256"
        }
      ],
      "name": "getIntelligence",
      "outputs": [
        {
          "internalType": "uint256",
          "name": "",
          "type": "uint256"
        }
      ],
      "stateMutability": "pure",
      "type": "function"
    },
    {
      "inputs": [
        {
          "internalType": "uint256",
          "name": "hero",
          "type": "uint256"
        }
      ],
      "name": "getMagic",
      "outputs": [
        {
          "internalType": "uint256",
          "name": "",
          "type": "uint256"
        }
      ],
      "stateMutability": "pure",
      "type": "function"
    },
    {
      "inputs": [
        {
          "internalType": "uint256",
          "name": "hero",
          "type": "uint256"
        }
      ],
      "name": "getStrength",
      "outputs": [
        {
          "internalType": "uint256",
          "name": "",
          "type": "uint256"
        }
      ],
      "stateMutability": "pure",
      "type": "function"
    }
  ],
  "bytecode": "0x608060405234801561001057600080fd5b50610aef806100206000396000f3fe6080604052600436106100865760003560e01c80635e7e236d116100595780635e7e236d1461016d5780639a8d288214610189578063baa5b27f146101b4578063e15f2255146101f1578063e53fbda61461022e57610086565b806302e4af011461008b5780633fc70f2c146100b6578063512d62df146100f35780635bc0a62314610130575b600080fd5b34801561009757600080fd5b506100a061026b565b6040516100ad9190610645565b60405180910390f35b3480156100c257600080fd5b506100dd60048036038101906100d89190610691565b61029e565b6040516100ea9190610645565b60405180910390f35b3480156100ff57600080fd5b5061011a60048036038101906101159190610691565b6102af565b6040516101279190610735565b60405180910390f35b34801561013c57600080fd5b5061015760048036038101906101529190610691565b6102cf565b6040516101649190610645565b60405180910390f35b61018760048036038101906101829190610775565b6102e0565b005b34801561019557600080fd5b5061019e610565565b6040516101ab9190610860565b60405180910390f35b3480156101c057600080fd5b506101db60048036038101906101d69190610691565b6105f9565b6040516101e89190610645565b60405180910390f35b3480156101fd57600080fd5b5061021860048036038101906102139190610691565b61060a565b6040516102259190610645565b60405180910390f35b34801561023a57600080fd5b5061025560048036038101906102509190610691565b61061b565b6040516102629190610645565b60405180910390f35b600044426040516020016102809291906108a3565b6040516020818303038152906040528051906020012060001c905090565b6000601f600783901c169050919050565b6000602082901c60028111156102c8576102c76106be565b5b9050919050565b6000601f601683901c169050919050565b66b1a2bc2ec5000034101561032a576040517f08c379a00000000000000000000000000000000000000000000000000000000081526004016103219061092c565b60405180910390fd5b6000600567ffffffffffffffff8111156103475761034661094c565b5b6040519080825280602002602001820160405280156103755781602001602082028036833780820191505090505b50905060028160008151811061038e5761038d61097b565b5b6020026020010181815250506007816001815181106103b0576103af61097b565b5b602002602001018181525050600c816002815181106103d2576103d161097b565b5b6020026020010181815250506011816003815181106103f4576103f361097b565b5b6020026020010181815250506016816004815181106104165761041561097b565b5b602002602001018181525050600081519050600083600281111561043d5761043c6106be565b5b90505b60008261044b61026b565b61045591906109d9565b90506000600184600d6104689190610a39565b61047061026b565b61047a91906109d9565b6104849190610a39565b90508482815181106104995761049861097b565b5b602002602001015181901b8317925083806104b390610a8f565b9450508484815181106104c9576104c861097b565b5b60200260200101518583815181106104e4576104e361097b565b5b602002602001018181525050505060008211610440576000803373ffffffffffffffffffffffffffffffffffffffff1673ffffffffffffffffffffffffffffffffffffffff16815260200190815260200160002081908060018154018082558091505060019003906000526020600020016000909190919091505550505050565b60606000803373ffffffffffffffffffffffffffffffffffffffff1673ffffffffffffffffffffffffffffffffffffffff1681526020019081526020016000208054806020026020016040519081016040528092919081815260200182805480156105ef57602002820191906000526020600020905b8154815260200190600101908083116105db575b5050505050905090565b6000601f601183901c169050919050565b6000601f600c83901c169050919050565b6000601f600283901c169050919050565b6000819050919050565b61063f8161062c565b82525050565b600060208201905061065a6000830184610636565b92915050565b600080fd5b61066e8161062c565b811461067957600080fd5b50565b60008135905061068b81610665565b92915050565b6000602082840312156106a7576106a6610660565b5b60006106b58482850161067c565b91505092915050565b7f4e487b7100000000000000000000000000000000000000000000000000000000600052602160045260246000fd5b600381106106fe576106fd6106be565b5b50565b600081905061070f826106ed565b919050565b600061071f82610701565b9050919050565b61072f81610714565b82525050565b600060208201905061074a6000830184610726565b92915050565b6003811061075d57600080fd5b50565b60008135905061076f81610750565b92915050565b60006020828403121561078b5761078a610660565b5b600061079984828501610760565b91505092915050565b600081519050919050565b600082825260208201905092915050565b6000819050602082019050919050565b6107d78161062c565b82525050565b60006107e983836107ce565b60208301905092915050565b6000602082019050919050565b600061080d826107a2565b61081781856107ad565b9350610822836107be565b8060005b8381101561085357815161083a88826107dd565b9750610845836107f5565b925050600181019050610826565b5085935050505092915050565b6000602082019050818103600083015261087a8184610802565b905092915050565b6000819050919050565b61089d6108988261062c565b610882565b82525050565b60006108af828561088c565b6020820191506108bf828461088c565b6020820191508190509392505050565b600082825260208201905092915050565b7f506c656173652073656e64206d6f7265206d6f6e657900000000000000000000600082015250565b60006109166016836108cf565b9150610921826108e0565b602082019050919050565b6000602082019050818103600083015261094581610909565b9050919050565b7f4e487b7100000000000000000000000000000000000000000000000000000000600052604160045260246000fd5b7f4e487b7100000000000000000000000000000000000000000000000000000000600052603260045260246000fd5b7f4e487b7100000000000000000000000000000000000000000000000000000000600052601260045260246000fd5b60006109e48261062c565b91506109ef8361062c565b9250826109ff576109fe6109aa565b5b828206905092915050565b7f4e487b7100000000000000000000000000000000000000000000000000000000600052601160045260246000fd5b6000610a448261062c565b9150610a4f8361062c565b9250827fffffffffffffffffffffffffffffffffffffffffffffffffffffffffffffffff03821115610a8457610a83610a0a565b5b828201905092915050565b6000610a9a8261062c565b91506000821415610aae57610aad610a0a565b5b60018203905091905056fea2646970667358221220bf4ce13ebff3d49b1617e01b9328986faf038b11bd2c35198a4ac81b7f40ea1c64736f6c634300080a0033",
  "linkReferences": {},
  "deployedLinkReferences": {}
}