{
  "_format": "hh-sol-artifact-1",
  "contractName": "TestHero",
  "sourceName": "contracts/TestHero.sol",
  "abi": [
    {
      "inputs": [
        {
          "internalType": "enum Hero.Class",
          "name": "class",
          "type": "uint8"
        }
      ],
      "name": "createHero",
      "outputs": [],
      "stateMutability": "payable",
      "type": "function"
    },
    {
      "inputs": [],
      "name": "generateRandom",
      "outputs": [
        {
          "internalType": "uint256",
          "name": "",
          "type": "uint256"
        }
      ],
      "stateMutability": "view",
      "type": "function"
    },
    {
      "inputs": [
        {
          "internalType": "uint256",
          "name": "hero",
          "type": "uint256"
        }
      ],
      "name": "getClass",
      "outputs": [
        {
          "internalType": "enum Hero.Class",
          "name": "",
          "type": "uint8"
        }
      ],
      "stateMutability": "pure",
      "type": "function"
    },
    {
      "inputs": [
        {
          "internalType": "uint256",
          "name": "hero",
          "type": "uint256"
        }
      ],
      "name": "getDexterity",
      "outputs": [
        {
          "internalType": "uint256",
          "name": "",
          "type": "uint256"
        }
      ],
      "stateMutability": "pure",
      "type": "function"
    },
    {
      "inputs": [
        {
          "internalType": "uint256",
          "name": "hero",
          "type": "uint256"
        }
      ],
      "name": "getHealth",
      "outputs": [
        {
          "internalType": "uint256",
          "name": "",
          "type": "uint256"
        }
      ],
      "stateMutability": "pure",
      "type": "function"
    },
    {
      "inputs": [],
      "name": "getHeroes",
      "outputs": [
        {
          "internalType": "uint256[]",
          "name": "",
          "type": "uint256[]"
        }
      ],
      "stateMutability": "view",
      "type": "function"
    },
    {
      "inputs": [
        {
          "internalType": "uint256",
          "name": "hero",
          "type": "uint256"
        }
      ],
      "name": "getIntelligence",
      "outputs": [
        {
          "internalType": "uint256",
          "name": "",
          "type": "uint256"
        }
      ],
      "stateMutability": "pure",
      "type": "function"
    },
    {
      "inputs": [
        {
          "internalType": "uint256",
          "name": "hero",
          "type": "uint256"
        }
      ],
      "name": "getMagic",
      "outputs": [
        {
          "internalType": "uint256",
          "name": "",
          "type": "uint256"
        }
      ],
      "stateMutability": "pure",
      "type": "function"
    },
    {
      "inputs": [
        {
          "internalType": "uint256",
          "name": "hero",
          "type": "uint256"
        }
      ],
      "name": "getStrength",
      "outputs": [
        {
          "internalType": "uint256",
          "name": "",
          "type": "uint256"
        }
      ],
      "stateMutability": "pure",
      "type": "function"
    },
    {
      "inputs": [
        {
          "internalType": "uint256",
          "name": "r",
          "type": "uint256"
        }
      ],
      "name": "setRandom",
      "outputs": [],
      "stateMutability": "nonpayable",
      "type": "function"
    }
  ],
  "bytecode": "0x608060405234801561001057600080fd5b50610ab7806100206000396000f3fe6080604052600436106100915760003560e01c8063729e7cf611610059578063729e7cf6146101945780639a8d2882146101bd578063baa5b27f146101e8578063e15f225514610225578063e53fbda61461026257610091565b806302e4af01146100965780633fc70f2c146100c1578063512d62df146100fe5780635bc0a6231461013b5780635e7e236d14610178575b600080fd5b3480156100a257600080fd5b506100ab61029f565b6040516100b8919061065a565b60405180910390f35b3480156100cd57600080fd5b506100e860048036038101906100e391906106a6565b6102a9565b6040516100f5919061065a565b60405180910390f35b34801561010a57600080fd5b50610125600480360381019061012091906106a6565b6102ba565b604051610132919061074a565b60405180910390f35b34801561014757600080fd5b50610162600480360381019061015d91906106a6565b6102da565b60405161016f919061065a565b60405180910390f35b610192600480360381019061018d919061078a565b6102eb565b005b3480156101a057600080fd5b506101bb60048036038101906101b691906106a6565b610570565b005b3480156101c957600080fd5b506101d261057a565b6040516101df9190610875565b60405180910390f35b3480156101f457600080fd5b5061020f600480360381019061020a91906106a6565b61060e565b60405161021c919061065a565b60405180910390f35b34801561023157600080fd5b5061024c600480360381019061024791906106a6565b61061f565b604051610259919061065a565b60405180910390f35b34801561026e57600080fd5b50610289600480360381019061028491906106a6565b610630565b604051610296919061065a565b60405180910390f35b6000600154905090565b6000601f600783901c169050919050565b6000602082901c60028111156102d3576102d26106d3565b5b9050919050565b6000601f601683901c169050919050565b66b1a2bc2ec50000341015610335576040517f08c379a000000000000000000000000000000000000000000000000000000000815260040161032c906108f4565b60405180910390fd5b6000600567ffffffffffffffff81111561035257610351610914565b5b6040519080825280602002602001820160405280156103805781602001602082028036833780820191505090505b50905060028160008151811061039957610398610943565b5b6020026020010181815250506007816001815181106103bb576103ba610943565b5b602002602001018181525050600c816002815181106103dd576103dc610943565b5b6020026020010181815250506011816003815181106103ff576103fe610943565b5b60200260200101818152505060168160048151811061042157610420610943565b5b6020026020010181815250506000815190506000836002811115610448576104476106d3565b5b90505b60008261045661029f565b61046091906109a1565b90506000600184600d6104739190610a01565b61047b61029f565b61048591906109a1565b61048f9190610a01565b90508482815181106104a4576104a3610943565b5b602002602001015181901b8317925083806104be90610a57565b9450508484815181106104d4576104d3610943565b5b60200260200101518583815181106104ef576104ee610943565b5b60200260200101818152505050506000821161044b576000803373ffffffffffffffffffffffffffffffffffffffff1673ffffffffffffffffffffffffffffffffffffffff16815260200190815260200160002081908060018154018082558091505060019003906000526020600020016000909190919091505550505050565b8060018190555050565b60606000803373ffffffffffffffffffffffffffffffffffffffff1673ffffffffffffffffffffffffffffffffffffffff16815260200190815260200160002080548060200260200160405190810160405280929190818152602001828054801561060457602002820191906000526020600020905b8154815260200190600101908083116105f0575b5050505050905090565b6000601f601183901c169050919050565b6000601f600c83901c169050919050565b6000601f600283901c169050919050565b6000819050919050565b61065481610641565b82525050565b600060208201905061066f600083018461064b565b92915050565b600080fd5b61068381610641565b811461068e57600080fd5b50565b6000813590506106a08161067a565b92915050565b6000602082840312156106bc576106bb610675565b5b60006106ca84828501610691565b91505092915050565b7f4e487b7100000000000000000000000000000000000000000000000000000000600052602160045260246000fd5b60038110610713576107126106d3565b5b50565b600081905061072482610702565b919050565b600061073482610716565b9050919050565b61074481610729565b82525050565b600060208201905061075f600083018461073b565b92915050565b6003811061077257600080fd5b50565b60008135905061078481610765565b92915050565b6000602082840312156107a05761079f610675565b5b60006107ae84828501610775565b91505092915050565b600081519050919050565b600082825260208201905092915050565b6000819050602082019050919050565b6107ec81610641565b82525050565b60006107fe83836107e3565b60208301905092915050565b6000602082019050919050565b6000610822826107b7565b61082c81856107c2565b9350610837836107d3565b8060005b8381101561086857815161084f88826107f2565b975061085a8361080a565b92505060018101905061083b565b5085935050505092915050565b6000602082019050818103600083015261088f8184610817565b905092915050565b600082825260208201905092915050565b7f506c656173652073656e64206d6f7265206d6f6e657900000000000000000000600082015250565b60006108de601683610897565b91506108e9826108a8565b602082019050919050565b6000602082019050818103600083015261090d816108d1565b9050919050565b7f4e487b7100000000000000000000000000000000000000000000000000000000600052604160045260246000fd5b7f4e487b7100000000000000000000000000000000000000000000000000000000600052603260045260246000fd5b7f4e487b7100000000000000000000000000000000000000000000000000000000600052601260045260246000fd5b60006109ac82610641565b91506109b783610641565b9250826109c7576109c6610972565b5b828206905092915050565b7f4e487b7100000000000000000000000000000000000000000000000000000000600052601160045260246000fd5b6000610a0c82610641565b9150610a1783610641565b9250827fffffffffffffffffffffffffffffffffffffffffffffffffffffffffffffffff03821115610a4c57610a4b6109d2565b5b828201905092915050565b6000610a6282610641565b91506000821415610a7657610a756109d2565b5b60018203905091905056fea26469706673582212200e3692ca2e8a6f99f124c8a232160862bff0077f15b85ebd67cfcb6a67da2bd964736f6c634300080a0033",
  "linkReferences": {},
  "deployedLinkReferences": {}
}